:020000040800F2
:1000000000500020250B0008990A0008A10A0008EA
:10001000A90A0008B10A0008B90A00080000000097
:10002000000000000000000000000000C10A0008FD
:10003000CD0A000800000000D90A0008E50A0008FF
:100040006D0B00086D0B00086D0B00086D0B0008B0
:100050006D0B00086D0B00086D0B00086D0B0008A0
:100060006D0B00086D0B00086D0B00086D0B000890
:100070006D0B00086D0B00086D0B00086D0B000880
:100080006D0B00086D0B00086D0B00086D0B000870
:100090006D0B00086D0B00086D0B00086D0B000860
:1000A0006D0B00086D0B00086D0B00086D0B000850
:1000B0006D0B00086D0B00086D0B0008F10A0008BD
:1000C000050B00086D0B00086D0B00086D0B000898
:1000D0006D0B00086D0B00086D0B00086D0B000820
:1000E0006D0B00086D0B00086D0B00080000000090
:1000F0000000000000000000000000000000000000
:0C01000000000000000000005FF808F1A3
:10010C0010B5054C237833B9044B13B10448AFF345
:10011C0000800123237010BD0C00002000000000A3
:10012C00604C000808B5034B1BB103490348AFF3FF
:10013C00008008BD0000000010000020604C00088A
:10014C0080B500AF00224FF40051024801F0B4FB1F
:10015C0000BF80BD0010014080B500AF01224FF4FC
:10016C000051024801F0A8FB00BF80BD0010014007
:10017C0080B500AF4FF40051024801F0B5FB00BF51
:10018C0080BD00BF0010014080B586B004AF0A23CB
:10019C00029301230193BB1D009301237522D021EF
:1001AC00384801F00DFE0346FB71FB79002B01D0A2
:1001BC00012363E0BB79682B0DD0BB79702B0AD07F
:1001CC00BB79712B07D0BB79732B04D0BA792E4B2A
:1001DC001A70032352E0BA792B4B1A7001237B71EE
:1001EC000A230293012301937B1D009301236B22AD
:1001FC00D021244801F0EAFC0346002B01D0012356
:10020C003CE0642000F010FD03237B710A23029371
:10021C00012301937B1D009301231A22D02119483D
:10022C0001F0D4FC0346002B01D0012326E000236F
:10023C007B710A230293012301937B1D00930123FD
:10024C001C22D0210F4801F0C1FC0346002B01D029
:10025C00012313E000237B710A23029301230193F2
:10026C007B1D009301231B22D021064801F0AEFC1C
:10027C000346002B01D0012300E000231846083769
:10028C00BD4680BD50000020A400002080B58CB07D
:10029C0004AFF860B9607A603B600A2302930E23C6
:1002AC00019307F11003009301233B22D021354821
:1002BC0001F086FD0346FB77FB7F002B20D0324BF1
:1002CC001B680133304A13607B6800221A807B68FC
:1002DC00B3F90020BB681A80BB68B3F90020FB6837
:1002EC001A80FB6A00221A80FB6AB3F90020BB6AF1
:1002FC001A80BB6AB3F900203B681A80FB7F3CE094
:10030C003B7C1BB21B021AB27B7C1BB213431AB28E
:10031C00FB681A80BB7C1BB21B021AB2FB7C1BB2A3
:10032C0013431AB2BB681A803B7D1BB21B021AB274
:10033C007B7D1BB213431AB27B681A803B7E1BB2C7
:10034C001B021AB27B7E1BB213431AB23B681A8093
:10035C00BB7E1BB21B021AB2FB7E1BB213431AB23A
:10036C00BB6A1A803B7F1BB21B021AB27B7F1BB28B
:10037C0013431AB2FB6A1A80002318462037BD4675
:10038C0080BD00BF50000020AC00002080B584B0C0
:10039C0000AF786000F03EFCF86009E000F03AFC39
:1003AC000246FB68D31A7A689A4201D8032306E006
:1003BC00054800F034FF0346002BEFD0002318460D
:1003CC001037BD4680BD00BF2800002090B58DB011
:1003DC0000AF0446084611461A462346FB800346E6
:1003EC00BB800B467B8013463B8000237B62002343
:1003FC003B62002387F82C300023FB6140F2012381
:10040C00BB610823BB62B7F906301B121BB2DBB20F
:10041C003B74FB88DBB27B74B7F904301B121BB244
:10042C00DBB2BB74BB88DBB2FB74B7F902301B12B6
:10043C001BB2DBB23B757B88DBB27B75B7F9003046
:10044C001B121BB2DBB2BB753B88DBB2FB75052004
:10045C00FFF79CFF0346002B06D02C4B1B68013387
:10046C002A4A136003234CE007F10C0307F1100236
:10047C0007F11801264800F003FE0346002B06D0B6
:10048C00224B1B680133214A1360012339E04FF4DE
:10049C000173BB610423BB62B7F940301B121BB262
:1004AC00DBB23B74B7F84030DBB27B74B7F9443045
:1004BC001B121BB2DBB2BB74B7F84430DBB2FB745B
:1004CC000520FFF763FF0346002B06D00F4B1B687C
:1004DC0001330E4A1360032313E007F10C0307F1F9
:1004EC00100207F118010A4800F0CAFD0346002B60
:1004FC0006D0064B1B680133044A1360012300E04D
:10050C00002318463437BD4690BD00BFA80000201C
:10051C002800002080B584B000AF0346FB71FB7946
:10052C00FB73FB7B002B01D10523FB730023BB73F7
:10053C000CE0FFF705FE962000F076FBFFF70CFEB3
:10054C00962000F071FBBB7B0133BB73BA7BFB7B4A
:10055C009A42EED34FF47A7000F066FBE6E70000A7
:10056C00B0B594B002AF00F0FDFA00F097F800F0CF
:10057C003FF900F0D9F800F00DF9FFF7E1FD9620F6
:10058C0000F052FBFFF700FE034687F83F3097F868
:10059C003F30012B03D10220FFF7BCFF0EE097F890
:1005AC003F30032B03D10120FFF7B4FF06E097F88F
:1005BC003F30002B02D00520FFF7ACFF07F11003F2
:1005CC0028220021184604F019FB00237B6200232B
:1005DC00BB620123FB6200233B6100237B61002390
:1005EC00BB610023FB6100233B6201233B630E23B1
:1005FC007B6307F110031946274800F034FC0346CF
:10060C00002B02D00320FFF785FF234800F0F4FCF9
:10061C000346002B02D00320FFF77CFFFFF79CFD65
:10062C0000F0F8FA786400233B6400F0F3FAB86346
:10063C00BA6B7B6CD31A132BF7D97B6C14337B649A
:10064C0007F1080407F10A0207F10C0107F10E008B
:10065C003B1D0193BB1D00932346FFF717FEB7F913
:10066C000E00B7F90C10B7F90A40B7F90850B7F9F2
:10067C000630B7F90420019200932B462246FFF76F
:10068C00A5FE3B6C01333B643B6C182BCDD900238E
:10069C003B64FFF76DFDC8E72800002080B590B0E3
:1006AC0000AF07F1180328220021184604F0A6FA1F
:1006BC003B1D00221A605A609A60DA601A610123AD
:1006CC00BB614FF48033FB6100233B620123BB62AF
:1006DC0002237B634FF48033BB634FF4E013FB6363
:1006EC0007F11803184603F08DFE0346002B01D0CA
:1006FC0000F0D6F80F237B600223BB600023FB6065
:10070C004FF480633B6100237B613B1D0221184643
:10071C0004F0FAF80346002B01D000F0C1F800BF3A
:10072C004037BD4680BD000080B500AF174B184A5E
:10073C001A60164B04225A60144B00229A60134B19
:10074C000022DA60114B4FF460221A610F4B4FF408
:10075C0080125A610D4B00221A760C4B01225A76EC
:10076C000A4B00229A76094B0022DA76074B0022BC
:10077C001A77064B00225A77044800F079FA0346A0
:10078C00002B01D000F08CF800BF80BD28000020A9
:10079C000064004080B500AF124B134A1A60114B35
:1007AC00124A5A600F4B00229A600E4B0022DA60FC
:1007BC000C4B4FF480421A610A4B00225A61094BD0
:1007CC0000229A61074B0022DA61064B00221A6262
:1007DC00044801F0A3F80346002B01D000F060F8A8
:1007EC0000BF80BD5000002000540040801A06005D
:1007FC0080B588B000AF07F1100300221A605A6070
:10080C009A60DA60244B9B69234A43F0100393618E
:10081C00214B9B6903F01003FB60FB681E4B9B692B
:10082C001D4A43F0200393611B4B9B6903F020038B
:10083C00BB60BB68184B9B69174A43F00403936178
:10084C00154B9B6903F004037B607B68124B9B691F
:10085C00114A43F0080393610F4B9B6903F00803A3
:10086C003B603B6801224FF400510C4801F024F826
:10087C004FF400533B6101237B610023BB610223D6
:10088C00FB6107F110031946044800F091FE00BF0C
:10089C002037BD4680BD00BF001002400010014053
:1008AC0080B500AF72B600BF0520FFF733FE00BF66
:1008BC0080BD000080B485B000AF154B9B69144A15
:1008CC0043F001039361124B9B6903F00103BB607E
:1008DC00BB680F4BDB690E4A43F08053D3610C4B62
:1008EC00DB6903F080537B607B680A4B5B68FB60C1
:1008FC00FB6823F0E063FB60FB6843F00073FB6074
:10090C00044AFB68536000BF1437BD4680BC704777
:10091C00001002400000014080B58AB000AF786042
:10092C0007F1140300221A605A609A60DA607B683F
:10093C001B682B4A93424FD12A4B9B69294A43F09F
:10094C0001039361274B9B6903F001033B613B69F6
:10095C00244BDB69234A43F00073D361214BDB69E1
:10096C0003F00073FB60FB681E4B9B691D4A43F050
:10097C00080393611B4B9B6903F00803BB60BB68C6
:10098C004FF480737B610023BB610023FB6107F193
:10099C0014031946144800F00BFE4FF400737B61EE
:1009AC000223BB6103233B6207F1140319460E4873
:1009BC0000F0FEFD0D4B5B687B627B6A23F4C04349
:1009CC007B627B6A43F0E0637B627B6A43F4804327
:1009DC007B62064A7B6A536000BF2837BD4680BDE8
:1009EC000064004000100240000C01400000014077
:1009FC0080B588B000AF786007F1100300221A6050
:100A0C005A609A60DA607B681B681D4A934233D146
:100A1C001C4B9B691B4A43F008039361194B9B6960
:100A2C0003F00803FB60FB68C0233B6112237B616E
:100A3C000323FB6107F110031946134800F0B8FDBE
:100A4C00104BDB690F4A43F40013D3610D4BDB6988
:100A5C0003F40013BB60BB68002200211F2000F0D0
:100A6C00EAFC1F2000F003FD00220021202000F0F2
:100A7C00E2FC202000F0FBFC00BF2037BD4680BD0F
:100A8C000054004000100240000C014080B400AF44
:100A9C0000BFFDE780B400AF00BFFDE780B400AF3E
:100AAC0000BFFDE780B400AF00BFFDE780B400AF2E
:100ABC0000BFFDE780B400AF00BFBD4680BC7047EF
:100ACC0080B400AF00BFBD4680BC704780B400AF9F
:100ADC0000BFBD4680BC704780B500AF00F088F801
:100AEC0000BF80BD80B500AF024801F0DDFB00BF48
:100AFC0080BD00BF5000002080B500AF024801F05F
:100B0C0044FD00BF80BD00BF5000002080B400AF8A
:100B1C0000BFBD4680BC7047FFF7F8FF0B480C497F
:100B2C000C4A002302E0D458C4500433C4188C423D
:100B3C00F9D3094A094C002301E013600432A242A4
:100B4C00FBD304F063F8FFF70BFD704700000020A7
:100B5C000C000020AC4C00080C000020B40000205D
:100B6C00FEE7000080B500AF084B1B68074A43F056
:100B7C0010031360032000F053FC0F2000F008F862
:100B8C00FFF798FE0023184680BD00BF00200240EE
:100B9C0080B582B000AF7860124B1A68124B1B788C
:100BAC0019464FF47A73B3FBF1F3B2FBF3F3184627
:100BBC0000F06BFC0346002B01D001230EE07B6898
:100BCC000F2B0AD8002279684FF0FF3000F033FC6D
:100BDC00064A7B681360002300E00123184608379F
:100BEC00BD4680BD0000002008000020040000204D
:100BFC0080B400AF054B1B781A46054B1B68134499
:100C0C00034A136000BFBD4680BC7047080000203B
:100C1C00B000002080B400AF024B1B681846BD46E4
:100C2C0080BC7047B000002080B584B000AF786005
:100C3C00FFF7F0FFB8607B68FB60FB68B3F1FF3F28
:100C4C0005D00A4B1B781A46FB681344FB6000BFA7
:100C5C00FFF7E0FF0246BB68D31AFA689A42F7D84E
:100C6C0000BF00BF1037BD4680BD00BF080000208C
:100C7C0080B584B000AF78607B68002B01D1012374
:100C8C00EDE07B6893F82030DBB2002B02D1786862
:100C9C00FFF742FE7B681B681A687B681B6842F092
:100CAC0001021A60FFF7B6FFF86012E0FFF7B2FF1F
:100CBC000246FB68D31A0A2B0BD97B685B6A43F498
:100CCC0000327B685A627B68052283F8202001235E
:100CDC00C5E07B681B685B6803F00103002BE5D063
:100CEC007B681B681A687B681B6822F002021A601A
:100CFC00FFF790FFF86012E0FFF78CFF0246FB68ED
:100D0C00D31A0A2B0BD97B685B6A43F400327B68DD
:100D1C005A627B68052283F8202001239FE07B68C0
:100D2C001B685B6803F00203002BE5D17B681B7E1C
:100D3C00012B08D17B681B681A687B681B6842F022
:100D4C0080021A6007E07B681B681A687B681B6866
:100D5C0022F080021A607B685B7E012B08D17B68D5
:100D6C001B681A687B681B6842F040021A6007E037
:100D7C007B681B681A687B681B6822F040021A604B
:100D8C007B689B7E012B08D17B681B681A687B688B
:100D9C001B6842F020021A6007E07B681B681A6827
:100DAC007B681B6822F020021A607B68DB7E012BBB
:100DBC0008D17B681B681A687B681B6822F01002DC
:100DCC001A6007E07B681B681A687B681B6842F036
:100DDC0010021A607B681B7F012B08D17B681B6893
:100DEC001A687B681B6842F008021A6007E07B688F
:100DFC001B681A687B681B6822F008021A607B6803
:100E0C005B7F012B08D17B681B681A687B681B68A9
:100E1C0042F004021A6007E07B681B681A687B6862
:100E2C001B6822F004021A607B689A687B68DB6896
:100E3C001A437B681B691A437B685B6942EA0301AE
:100E4C007B685B685A1E7B681B680A43DA617B68A7
:100E5C0000225A627B68012283F820200023184666
:100E6C001037BD4680BD80B487B000AF7860396064
:100E7C007B681B687B617B6893F82030FB74FB7C80
:100E8C00012B03D0FB7C022B40F0AA807B69D3F8AA
:100E9C00003243F001027B69C3F800223B685B69B6
:100EAC0003F01F03012202FA03F3FB607B69D3F802
:100EBC001C22FB68DB431A407B69C3F81C223B688D
:100ECC00DB69002B23D17B69D3F80C22FB68DB4355
:100EDC001A407B69C3F80C223B68DB6819043B6839
:100EEC005B689BB23A68526919437B69483243F894
:100EFC0032103B689B6819043B681B689AB23B68CC
:100F0C005B690A4379694833DB000B445A603B68E0
:100F1C00DB69012B22D17B69D3F80C22FB681A43C5
:100F2C007B69C3F80C223B681B6819043B685B683F
:100F3C009BB23A68526919437B69483243F83210C4
:100F4C003B689B6819043B68DB689AB23B685B6939
:100F5C000A4379694833DB000B445A603B689B6950
:100F6C00002B09D17B69D3F80422FB68DB431A40C0
:100F7C007B69C3F8042207E07B69D3F80422FB6881
:100F8C001A437B69C3F804223B681B69002B09D107
:100F9C007B69D3F81422FB68DB431A407B69C3F8E6
:100FAC00142207E07B69D3F81422FB681A437B698F
:100FBC00C3F814223B681B6A012B07D17B69D3F859
:100FCC001C22FB681A437B69C3F81C227B69D3F88B
:100FDC00003223F001027B69C3F80022002306E0F3
:100FEC007B685B6A43F480227B685A620123184653
:100FFC001C37BD4680BC704780B584B000AF7860AC
:10100C007B6893F82030DBB2012B2ED17B68022257
:10101C0083F820207B681B681A687B681B6822F0A9
:10102C0001021A60FFF7F6FDF86012E0FFF7F2FD1F
:10103C000246FB68D31A0A2B0BD97B685B6A43F414
:10104C0000327B685A627B68052283F820200123DA
:10105C0012E07B681B685B6803F00103002BE5D191
:10106C007B6800225A62002306E07B685B6A43F4CB
:10107C0000227B685A62012318461037BD4680BD9A
:10108C0080B489B000AFF860B9607A603B60FB68EF
:10109C0093F82030FB77FB681B689B68BB61FB7F78
:1010AC00012B03D0FB7F022B40F0AD80BB6903F01A
:1010BC008063002B0AD1BB6903F00063002B05D1C0
:1010CC00BB6903F08053002B00F09580BB691B0EAD
:1010DC0003F003037B6101227B699A403B681A6031
:1010EC00BB689B68002B0DD1BB681B685A05BB689D
:1010FC00DB68F96809681A437B6918331B010B44D8
:10110C001A600FE0BB685B68DA00BB689B681A4327
:10111C00BB68DB68F96809681A437B6918331B01E3
:10112C000B441A60FB681968BB681A697B69183331
:10113C001B010B4404331A60BB681B7D012B11D1BE
:10114C00FB681A687B6918331B01134404331B6852
:10115C00FA68116843F480727B6918331B010B44E5
:10116C0004331A607B6807331B781A067B680633D6
:10117C001B781B041A437B6805331B781B02134333
:10118C007A68043212781046FA68116843EA000251
:10119C007B691B010B4403F5C6731A607B68033330
:1011AC001B781A067B6802331B781B041A437B6876
:1011BC0001331B781B0213437A6812781046FA68C5
:1011CC00116843EA00027B691B010B4403F5C473ED
:1011DC001A60FB681A687B6918331B0113441B687F
:1011EC00FA68116843F001027B6918331B010B4448
:1011FC001A6000230EE0FB685B6A43F40012FB6884
:10120C005A62012306E0FB685B6A43F48022FB68A8
:10121C005A62012318462437BD4680BC704780B4FF
:10122C0085B000AF78600023FB607B6893F82030BA
:10123C00FB72FB7A012B02D0FB7A022B1DD17B684F
:10124C001B689B6803F08063002B02D0FB680133A2
:10125C00FB607B681B689B6803F00063002B02D06B
:10126C00FB680133FB607B681B689B6803F0805351
:10127C00002B02D0FB680133FB60FB681846143767
:10128C00BD4680BC7047000080B485B000AF78606C
:10129C007B6803F00703FB600C4BDB68BB60BA6830
:1012AC004FF6FF031340BB60FB681A02BB68134385
:1012BC0043F0BF6343F40033BB60044ABB68D360A4
:1012CC0000BF1437BD4680BC704700BF00ED00E086
:1012DC0080B400AF044BDB681B0A03F0070318460D
:1012EC00BD4680BC704700BF00ED00E080B483B009
:1012FC0000AF0346FB7197F90730002B0BDBFB7932
:10130C0003F01F02064997F907305B09012000FA28
:10131C0002F241F8232000BF0C37BD4680BC704759
:10132C0000E100E080B483B000AF03463960FB718C
:10133C0097F90730002B0ADB3B68DAB20C4997F9B6
:10134C0007301201D2B20B4483F800230AE03B6849
:10135C00DAB20849FB7903F00F03043B1201D2B255
:10136C000B441A7600BF0C37BD4680BC704700BFDB
:10137C0000E100E000ED00E080B489B000AFF8605F
:10138C00B9607A60FB6803F00703FB61FB69C3F18A
:10139C000703042B28BF0423BB61FB690433062B12
:1013AC0002D9FB69033B00E000237B614FF0FF3265
:1013BC00BB6902FA03F3DA43BB681A407B699A40B3
:1013CC004FF0FF317B6901FA03F3D9437B680B4083
:1013DC00134318462437BD4680BC704780B582B095
:1013EC0000AF78607B68013BB3F1807F01D30123B0
:1013FC000FE00A4A7B68013B53600F214FF0FF302E
:10140C00FFF790FF054B00229A60044B07221A60ED
:10141C00002318460837BD4680BD00BF10E000E031
:10142C0080B582B000AF78607868FFF72DFF00BF01
:10143C000837BD4680BD80B586B000AF0346B960A5
:10144C007A60FB7300237B61FFF742FF78617A6857
:10145C00B9687869FFF790FF024697F90F3011468B
:10146C001846FFF75FFF00BF1837BD4680BD80B53B
:10147C0082B000AF0346FB7197F907301846FFF7AF
:10148C0035FF00BF0837BD4680BD80B582B000AFC8
:10149C0078607868FFF7A2FF034618460837BD4608
:1014AC0080BD000080B584B000AF78600023FB7372
:1014BC007B6893F82130DBB2022B05D07B680422C9
:1014CC009A630123FB7351E07B681B681A687B6885
:1014DC001B6822F00E021A607B681B681A687B6816
:1014EC001B6822F001021A607B681B68224A934237
:1014FC0029D07B681B68214A934222D07B681B68E9
:10150C001F4A93421AD07B681B681E4A934212D022
:10151C007B681B681C4A93420AD07B681B681B4A79
:10152C00934202D14FF480130EE04FF080730BE026
:10153C004FF4803308E04FF4805305E04FF4807390
:10154C0002E0102300E00123114A53607B68012262
:10155C0083F821207B68002283F820207B685B6B5A
:10156C00002B03D07B685B6B78689847FB7B184635
:10157C001037BD4680BD00BF080002401C00024071
:10158C003000024044000240580002406C0002400F
:10159C000000024080B483B000AF78607B6893F8A1
:1015AC002130DBB218460C37BD4680BC70470000BA
:1015BC0080B48BB000AF7860396000237B6200236D
:1015CC003B6269E101227B6A02FA03F3FB613B682F
:1015DC001B68FA691340BB61BA69FB699A4240F017
:1015EC0058813B685B689A4A93425ED0984A934212
:1015FC0075D8984A934258D0964A93426FD8964AD7
:10160C00934252D0944A934269D8944A93424CD014
:10161C00924A934263D8924A934246D0904A93425C
:10162C005DD8122B2AD8122B59D801A252F823F0CC
:10163C00B716000891160008A3160008E516000856
:10164C00EB160008EB160008EB160008EB1600086A
:10165C00EB160008EB160008EB160008EB1600085A
:10166C00EB160008EB160008EB160008EB1600084A
:10167C00EB16000899160008AD160008794A93423B
:10168C0013D02CE03B68DB683B6229E03B68DB68ED
:10169C0004333B6224E03B68DB6808333B621FE0A9
:1016AC003B68DB680C333B621AE03B689B68002BA1
:1016BC0002D104233B6213E03B689B68012B05D1EC
:1016CC0008233B627B68FA691A6109E008233B62D4
:1016DC007B68FA695A6103E000233B6200E000BFBB
:1016EC00BB69FF2B01D87B6801E07B6804337B610D
:1016FC00BB69FF2B02D87B6A9B0002E07B6A083B2C
:10170C009B003B617B691A680F213B6901FA03F36B
:10171C00DB431A40396A3B6901FA03F31A437B69CC
:10172C001A603B685B6803F08053002B00F0B180BB
:10173C004D4B9B694C4A43F0010393614A4B9B69A7
:10174C0003F00103BB60BB68484A7B6A9B08023309
:10175C0052F82330FB607B6A03F003039B000F22DB
:10176C0002FA03F3DB43FA681340FB607B68404AE0
:10177C00934213D07B683F4A93420DD07B683E4A1C
:10178C00934207D07B683D4A934201D1032306E084
:10179C00042304E0022302E0012300E000237A6A20
:1017AC0002F0030292009340FA681343FB602F4946
:1017BC007B6A9B080233FA6841F823203B685B681C
:1017CC0003F48013002B06D02D4B9A682C49BB696F
:1017DC0013438B6006E02A4B9A68BB69DB432849AC
:1017EC0013408B603B685B6803F40013002B06D03E
:1017FC00234BDA682249BB691343CB6006E0204BCC
:10180C00DA68BB69DB431E491340CB603B685B68FD
:10181C0003F40033002B06D0194B5A681849BB69E6
:10182C0013434B6006E0164B5A68BB69DB43144903
:10183C0013404B603B685B6803F48033002B21D072
:10184C000F4B1A680E49BB6913430B6021E000BFB4
:10185C000000321000003110000022100000211096
:10186C000000121000001110001002400000014096
:10187C0000080140000C0140001001400014014020
:10188C00000401400B4B1A68BB69DB430949134048
:10189C000B607B6A01337B623B681A687B6A22FAB5
:1018AC0003F3002B7FF48EAE00BF00BF2C37BD4678
:1018BC0080BC70470004014080B483B000AF7860F6
:1018CC000B467B8013467B707B78002B03D07A8889
:1018DC007B681A6103E07B881A047B681A6100BF7D
:1018EC000C37BD4680BC704780B485B000AF7860C3
:1018FC000B467B807B68DB68FB607A88FB68134057
:10190C001A04FB68D9437B880B401A437B681A6125
:10191C0000BF1437BD4680BC7047000080B584B052
:10192C0000AF78607B68002B01D101232BE17B6831
:10193C0093F83D30DBB2002B06D17B68002283F894
:10194C003C207868FFF754F87B68242283F83D200C
:10195C007B681B681A687B681B6822F001021A609E
:10196C007B681B681A687B681B6842F400421A602B
:10197C007B681B681A687B681B6822F400421A603B
:10198C0003F00AF9F8607B685B68814A934207D8D8
:10199C00FB68804A934294BF01230023DBB206E02C
:1019AC00FB687D4A934294BF01230023DBB2002BDA
:1019BC0001D00123E7E0FB68784AA2FB03239B0CD0
:1019CC00BB607B681B685B6823F03F017B681B680E
:1019DC00BA680A435A607B681B681B6A23F03F0194
:1019EC007B685B686A4A934202D8BB68013309E0A2
:1019FC00BB684FF4967202FB03F3694AA2FB032304
:101A0C009B0901337A6812680B4313627B681B686D
:101A1C00DB6923F44F4222F0FF027B685B685C4970
:101A2C008B4219D8FB68591E7B685B685B00B1FB65
:101A3C00F3F3591C40F6FC730B40002B0AD0FB68E7
:101A4C00591E7B685B685B00B1FBF3F30133C3F396
:101A5C000B0351E004234FE07B689B68002B11D1F2
:101A6C00FB68581E7B6859680B465B000B44B0FB47
:101A7C00F3F30133C3F30B03002B0CBF012300233F
:101A8C00DBB212E0FB68581E7B6859680B469B0062
:101A9C000B4499000B44B0FBF3F30133C3F30B037A
:101AAC00002B0CBF01230023DBB2002B01D0012340
:101ABC0022E07B689B68002B0ED1FB68581E7B686C
:101ACC0059680B465B000B44B0FBF3F30133C3F3D3
:101ADC000B0343F400430FE0FB68581E7B68596806
:101AEC000B469B000B4499000B44B0FBF3F3013302
:101AFC00C3F30B0343F44043796809681343CB6188
:101B0C007B681B681B6823F0C0017B68DA697B6803
:101B1C001B6A1A437B681B680A431A607B681B6844
:101B2C009B6823F4034323F0FF037A6811697A68F6
:101B3C00D26811437A6812680B4393607B681B6808
:101B4C00DB6823F0FF017B685A697B689B691A4349
:101B5C007B681B680A43DA607B681B681A687B68C1
:101B6C001B6842F001021A607B6800221A647B68D1
:101B7C00202283F83D207B6800221A637B680022B8
:101B8C0083F83E20002318461037BD4680BD00BFA9
:101B9C00A08601007F841E00FF083D0083DE1B43EE
:101BAC00D34D621080B483B000AF78607B681B6843
:101BBC005B6903F08003802B03D17B681B680022D8
:101BCC001A6100BF0C37BD4680BC704780B588B029
:101BDC0002AFF860084611461A4603467B810B4655
:101BEC003B811346FB80FFF715F87861FB6893F88F
:101BFC003D30DBB2202B40F0D9807B690093192358
:101C0C0001226D49F86802F07BF90346002B01D0E4
:101C1C000223CCE0FB6893F83C30012B01D102236A
:101C2C00C5E0FB68012283F83C20FB681B681B683D
:101C3C0003F00103012B07D0FB681B681A68FB68D3
:101C4C001B6842F001021A60FB681B681A68FB688B
:101C5C001B6822F400621A60FB68212283F83D2085
:101C6C00FB68402283F83E20FB6800221A64FB6864
:101C7C003A6A5A62FB68BA8C5A85FB685B8D9AB2D9
:101C8C00FB681A85FB684D4ADA62F8883A897989CB
:101C9C007B690193BB6A00930346F86801F00AFF65
:101CAC000346002B52D0012381E07A69B96AF868A7
:101CBC0002F040FA0346002B0DD0FB681B6C042B82
:101CCC0007D1FB681B681A68FB681B6842F400723A
:101CDC001A6001236BE0FB685B6A1A78FB681B686F
:101CEC001A61FB685B6A5A1CFB685A62FB681B8DA5
:101CFC00013B9AB2FB681A85FB685B8D9BB2013B7A
:101D0C009AB2FB685A85FB681B685B6903F0040395
:101D1C00042B1BD1FB681B8D002B17D0FB685B6A57
:101D2C001A78FB681B681A61FB685B6A5A1CFB68B3
:101D3C005A62FB681B8D013B9AB2FB681A85FB68E3
:101D4C005B8D9BB2013B9AB2FB685A85FB681B8D7D
:101D5C00002BAAD17A69B96AF86802F033FA034603
:101D6C00002B0DD0FB681B6C042B07D1FB681B6888
:101D7C001A68FB681B6842F400721A60012316E0B3
:101D8C00FB681B681A68FB681B6842F400721A60D7
:101D9C00FB68202283F83D20FB68002283F83E205C
:101DAC00FB68002283F83C20002300E00223184645
:101DBC001837BD4680BD00BF020010000000FFFFB9
:101DCC0080B58CB002AFF860084611461A4603463F
:101DDC007B810B463B811346FB8000233B62FEF765
:101DEC0019FF7862FB6893F83D30DBB2202B40F092
:101DFC0050827B6A0093192301228249F86802F011
:101E0C007FF80346002B01D0022343E2FB6893F8D2
:101E1C003C30012B01D102233CE2FB68012283F808
:101E2C003C20FB681B681B6803F00103012B07D0E7
:101E3C00FB681B681A68FB681B6842F001021A6099
:101E4C00FB681B681A68FB681B6822F400621A6046
:101E5C00FB68222283F83D20FB68402283F83E2059
:101E6C00FB6800221A64FB683A6B5A62FB68BA8EF4
:101E7C005A85FB685B8D9AB2FB681A85FB68624ACF
:101E8C00DA62F8883A8979897B6A0193BB6B009393
:101E9C000346F86801F0A4FE0346002B01D0012391
:101EAC00F8E1FB681B8D002B13D10023FB61FB6851
:101EBC001B685B69FB61FB681B689B69FB61FB69C9
:101ECC00FB681B681A68FB681B6842F400721A6096
:101EDC00CCE1FB681B8D012B1ED1FB681B681A68BB
:101EEC00FB681B6822F480621A6072B600BF002384
:101EFC00BB61FB681B685B69BB61FB681B689B690A
:101F0C00BB61BB69FB681B681A68FB681B6842F401
:101F1C0000721A6062B635E0FB681B8D022B1ED175
:101F2C00FB681B681A68FB681B6842F400621A6045
:101F3C0072B600BF00237B61FB681B685B697B6129
:101F4C00FB681B689B697B617B69FB681B681A6873
:101F5C00FB681B6822F480621A6062B612E0FB68B0
:101F6C001B681A68FB681B6842F480621A600023C5
:101F7C003B61FB681B685B693B61FB681B689B6989
:101F8C003B613B6972E1FB681B8D032B00F21F81E7
:101F9C00FB681B8D012B23D17A6AB96BF86802F0B0
:101FAC008BF90346002B01D0012373E1FB681B68FE
:101FBC001A69FB685B6AD2B21A70FB685B6A5A1CBE
:101FCC00FB685A62FB681B8D013B9AB2FB681A8551
:101FDC00FB685B8D9BB2013B9AB2FB685A8545E16D
:101FEC00FB681B8D022B52D17B6A0093BB6B0022CA
:101FFC000649F86801F084FF0346002B08D0012342
:10200C0048E100BF020010000000FFFF04000100C7
:10201C0072B600BFFB681B681A68FB681B6842F449
:10202C0000721A60FB681B681A69FB685B6AD2B2A3
:10203C001A70FB685B6A5A1CFB685A62FB681B8D42
:10204C00013B9AB2FB681A85FB685B8D9BB2013B26
:10205C009AB2FB685A8562B600BFFB681B681A69A6
:10206C00FB685B6AD2B21A70FB685B6A5A1CFB682D
:10207C005A62FB681B8D013B9AB2FB681A85FB68A0
:10208C005B8D9BB2013B9AB2FB685A85EEE07B6A92
:10209C000093BB6B00228149F86801F031FF0346C5
:1020AC00002B01D00123F5E0FB681B681A68FB6864
:1020BC001B6822F480621A6072B600BFFB681B6852
:1020CC001A69FB685B6AD2B21A70FB685B6A5A1CAD
:1020DC00FB685A62FB681B8D013B9AB2FB681A8540
:1020EC00FB685B8D9BB2013B9AB2FB685A856C4BCB
:1020FC001B68DB086B4AA2FB03231A0A13469B00DE
:10210C001344DA00D31A3B623B6A013B3B623B6AE5
:10211C00002B18D1FB6800221A63FB68202283F87D
:10212C003D20FB68002283F83E20FB681B6C43F0CB
:10213C002002FB681A6462B600BFFB68002283F8B9
:10214C003C200123A6E0FB681B685B6903F00403D9
:10215C00042BD9D1FB681B681A68FB681B6842F416
:10216C0000721A60FB681B681A69FB685B6AD2B262
:10217C001A70FB685B6A5A1CFB685A62FB681B8D01
:10218C00013B9AB2FB681A85FB685B8D9BB2013BE5
:10219C009AB2FB685A8562B600BFFB681B681A6965
:1021AC00FB685B6AD2B21A70FB685B6A5A1CFB68EC
:1021BC005A62FB681B8D013B9AB2FB681A85FB685F
:1021CC005B8D9BB2013B9AB2FB685A854EE07A6AF2
:1021DC00B96BF86802F070F80346002B01D00123AC
:1021EC0058E0FB681B681A69FB685B6AD2B21A700C
:1021FC00FB685B6A5A1CFB685A62FB681B8D013BCF
:10220C009AB2FB681A85FB685B8D9BB2013B9AB254
:10221C00FB685A85FB681B685B6903F00403042B9D
:10222C0024D1FB681B8D032B07D1FB681B681A6834
:10223C00FB681B6822F480621A60FB681B681A69D1
:10224C00FB685B6AD2B21A70FB685B6A5A1CFB684B
:10225C005A62FB681B8D013B9AB2FB681A85FB68BE
:10226C005B8D9BB2013B9AB2FB685A85FB681B8D58
:10227C00002B7FF488AEFB68202283F83D20FB689E
:10228C00002283F83E20FB68002283F83C200023C8
:10229C0000E0022318462837BD4680BD040001002B
:1022AC000000002089B5F81480B588B000AF7860C4
:1022BC000023BB617B681B685B687B617B68DB6AA6
:1022CC003B617B6893F83E30FB737B6893F83D3041
:1022DC00BB73FB7B102B03D0FB7B402B40F0C180EE
:1022EC007B681B689B69BB617B681B685B69FB61D6
:1022FC00FB6903F00103002B0DD13B69B3F52A0FE9
:10230C0003D03B69B3F12A4F01D1012300E0002334
:10231C00012B00F03281FB6903F00103002B0CD080
:10232C007B695B0A03F00103002B06D0786802F08E
:10233C004EF8786800F099FD92E0FB69DB0803F039
:10234C000103002B09D07B695B0A03F00103002B0E
:10235C0003D0786800F00EFE82E0FB695B0803F0A6
:10236C000103002B09D07B695B0A03F00103002BEE
:10237C0003D0786800F027FE72E0BB699B0803F07D
:10238C000103002B3BD07B681B685B6803F4006384
:10239C00B3F5006F00F0F380FB69DB0903F0010378
:1023AC00002B0FD07B699B0A03F00103002B09D093
:1023BC00FB699B0803F00103002B03D1786800F044
:1023CC00F1F94DE0FB699B0803F00103002B00F0D1
:1023DC00D6807B695B0A03F00103002B00F0CF80F1
:1023EC00BB7B212B03D1786800F078FAC7E0FB7B2C
:1023FC00402B40F0C480786800F0E6FABFE07B68C0
:10240C001B685B6803F40063B3F5006F00F0B780E2
:10241C00FB699B0903F00103002B0FD07B699B0A1E
:10242C0003F00103002B09D0FB699B0803F00103A7
:10243C00002B03D1786800F05FFB11E0FB699B086F
:10244C0003F00103002B00F09A807B695B0A03F018
:10245C000103002B00F09380786800F015FC8EE0EF
:10246C008DE07B681B6C002B04D07B681B685B6960
:10247C00FB6107E07B681B689B69BB617B681B6821
:10248C005B69FB61FB695B0803F00103002B12D055
:10249C007B695B0A03F00103002B0CD07B681B6C7F
:1024AC00002B03D07B681B689B69BB61B96978689A
:1024BC0000F0E0FF66E0FB691B0903F00103002B51
:1024CC0009D07B695B0A03F00103002B03D0786809
:1024DC0001F01AF856E0BB7B212B02D0BB7B292BD9
:1024EC0025D1FB69DB0903F00103002B0FD07B69BD
:1024FC009B0A03F00103002B09D0FB699B0803F036
:10250C000103002B03D1786800F0F8FE39E0FB6979
:10251C009B0803F00103002B33D07B695B0A03F0AB
:10252C000103002B2DD0786800F025FF29E0FB6912
:10253C009B0903F00103002B0FD07B699B0A03F06E
:10254C000103002B09D0FB699B0803F00103002B4E
:10255C0003D1786800F02FFF14E0FB699B0803F0AF
:10256C000103002B0ED07B695B0A03F00103002BE7
:10257C0008D0786800F05DFF04E000BF02E000BF07
:10258C0000E000BF2037BD4680BD80B58AB000AFEB
:10259C0078607B681B685B693B627B681B685B6867
:1025AC00FB6100237B627B6893F83E30FB763B6AD1
:1025BC001B0A03F00103002B16D0FB691B0A03F066
:1025CC000103002B10D07B6A43F001037B627B6814
:1025DC001B686FF480725A617B681B681A687B6891
:1025EC001B6842F400421A603B6A5B0A03F0010369
:1025FC00002B0ED0FB691B0A03F00103002B08D043
:10260C007B6A43F002037B627B681B686FF4007289
:10261C005A613B6A9B0A03F00103002B3FD0FB6914
:10262C001B0A03F00103002B39D0FB7EBB767B68C1
:10263C005B8D9BB27B617B6893F83D30FB747B6850
:10264C001B6BFB60BB7E202B12D17B69002B0FD147
:10265C00FB7C212B08D0FB7C292B05D0FB7C282B69
:10266C0006D1FB68212B03D1786801F07DF816E0C8
:10267C007B681B686FF480625A617B6A43F00403C9
:10268C007B62FB7E102B02D0FB7E402B07D17B683C
:10269C001B681A687B681B6842F400721A603B6AFC
:1026AC00DB0A03F00103002B0ED0FB691B0A03F0BD
:1026BC000103002B08D07B6A43F008037B627B6824
:1026CC001B686FF400625A617B6A002B08D07B6830
:1026DC001A6C7B6A1A437B681A64786801F0B8F844
:1026EC0000BF2837BD4680BD80B483B000AF786092
:1026FC0000BF0C37BD4680BC704780B483B000AFC0
:10270C00786000BF0C37BD4680BC704780B483B086
:10271C0000AF786000BF0C37BD4680BC704780B4FA
:10272C0083B000AF786000BF0C37BD4680BC7047EB
:10273C0080B483B000AF78600B46FB7013463B80CF
:10274C0000BF0C37BD4680BC704780B483B000AF6F
:10275C00786000BF0C37BD4680BC704780B483B036
:10276C0000AF786000BF0C37BD4680BC704780B4AA
:10277C0083B000AF786000BF0C37BD4680BC70479B
:10278C0080B483B000AF786000BF0C37BD4680BC0E
:10279C00704780B483B000AF786000BF0C37BD4683
:1027AC0080BC704780B584B000AF78607B6893F8CC
:1027BC003D30FB737B6893F83E30BB737B68DB6A00
:1027CC00BB607B681B8D002B50D1FB7B212B4DD12B
:1027DC00BB68082B1DD0BB68202B1AD0BB6813F527
:1027EC00803F16D07B681B685A687B681B6822F494
:1027FC00E0625A607B6811221A637B68002283F8BE
:10280C003E207B68202283F83D207868FFF76CFF20
:10281C0060E07B681B685A687B681B6822F4E06286
:10282C005A607B681B681A687B681B6842F40072EC
:10283C001A607B6800221A637B68202283F83D2093
:10284C007B6893F83E30DBB2402B07D17B680022CB
:10285C0083F83E207868FFF781FF3BE07B6800221D
:10286C0083F83E207868FFF73FFF33E0FB7B212B9A
:10287C0005D0BB7B402B2DD1FB7B222B2AD17B6837
:10288C005B8D9BB2002B08D17B681B685A687B68F8
:10289C001B6822F480625A601CE07B6893F83E301F
:1028AC00DBB2402B03D1786800F08EF812E07B6825
:1028BC005B6A1A787B681B681A617B685B6A5A1CB6
:1028CC007B685A627B685B8D9BB2013B9AB27B68DA
:1028DC005A85FFE700BF1037BD4680BD80B584B078
:1028EC0000AF78607B68DB6AFB607B6893F83D30F7
:1028FC00DBB2212B64D17B685B8D9BB2002B12D099
:10290C007B685B6A1A787B681B681A617B685B6AF8
:10291C005A1C7B685A627B685B8D9BB2013B9AB2F6
:10292C007B685A854CE0FB68082B1DD0FB68202B7C
:10293C001AD0FB6813F5803F16D07B681B685A6869
:10294C007B681B6822F4E0625A607B6811221A6370
:10295C007B68002283F83E207B68202283F83D2090
:10296C007868FFF7C1FE2BE07B681B685A687B68B0
:10297C001B6822F4E0625A607B681B681A687B68EB
:10298C001B6842F400721A607B6800221A637B6831
:10299C00202283F83D207B6893F83E30DBB2402B3D
:1029AC0007D17B68002283F83E207868FFF7D6FEBB
:1029BC0006E07B68002283F83E207868FFF794FEDF
:1029CC0000BF1037BD4680BD80B584B000AF7860C5
:1029DC007B6893F83D30FB737B681B6D002B1DD11E
:1029EC007B68DB6C012B0BD17B689B6CDAB27B6850
:1029FC001B681A617B681B6D9A1C7B681A6577E0F3
:102A0C007B689B6C9BB21B12DAB27B681B681A61E9
:102A1C007B681B6D5A1C7B681A6569E07B681B6DB3
:102A2C00012B0BD17B689B6CDAB27B681B681A613B
:102A3C007B681B6D5A1C7B681A6559E07B681B6DA3
:102A4C00022B52D1FB7B222B0DD17B681B681A68A1
:102A5C007B681B6842F480721A607B681B6D5A1C81
:102A6C007B681A6544E07B685B8D9BB2002B15D0AC
:102A7C00FB7B212B12D17B685B6A1A787B681B6805
:102A8C001A617B685B6A5A1C7B685A627B685B8D37
:102A9C009BB2013B9AB27B685A8529E07B685B8DBF
:102AAC009BB2002B24D1FB7B212B21D17B681B6893
:102ABC005A687B681B6822F4E0625A607B681B686A
:102ACC001A687B681B6842F400721A607B680022EB
:102ADC001A637B68202283F83D207B68002283F8F0
:102AEC003E207868FFF73AFE02E07868FFF75AF864
:102AFC0000BF1037BD4680BD80B584B000AF786094
:102B0C007B6893F83D30DBB2222B40F0B9807B68B8
:102B1C00DB6AFB607B685B8D9BB2BB60BB68032B85
:102B2C0021D97B681B681A697B685B6AD2B21A7000
:102B3C007B685B6A5A1C7B685A627B685B8D9BB2B4
:102B4C00013B9AB27B685A857B685B8D9BB2032BE9
:102B5C0040F096807B681B685A687B681B6822F47F
:102B6C0080625A608CE07B68DB6A022B7FD0BB688A
:102B7C00012B02D0BB68002B79D1786801F06AFB7D
:102B8C000346002B4CD17B681B681A687B681B685A
:102B9C0022F480621A607B681B685A687B681B6829
:102BAC0022F4E0625A607B681B681A697B685B6A76
:102BBC00D2B21A707B685B6A5A1C7B685A627B685B
:102BCC005B8D9BB2013B9AB27B685A857B68202255
:102BDC0083F83D207B6893F83E30DBB2402B0AD162
:102BEC007B68002283F83E207B6800221A63786899
:102BFC00FFF7BDFD44E07B68002283F83E20FB68B4
:102C0C00082B02D0FB68202B03D17B6800221A63AF
:102C1C0002E07B6812221A637868FFF76EFD2FE0E2
:102C2C007B681B685A687B681B6822F4E0625A60F8
:102C3C007B681B681A697B685B6AD2B21A707B6806
:102C4C005B6A5A1C7B685A627B685B8D9BB2013B4A
:102C5C009AB27B685A857B68202283F83D207B687A
:102C6C00002283F83E207868FFF78AFD08E07B6835
:102C7C001B685A687B681B6822F480625A60FFE705
:102C8C0000BF1037BD4680BD80B584B000AF786002
:102C9C007B68DB6AFB607B685B8D9BB2042B1BD172
:102CAC007B681B685A687B681B6822F480625A60D8
:102CBC007B681B681A697B685B6AD2B21A707B6886
:102CCC005B6A5A1C7B685A627B685B8D9BB2013BCA
:102CDC009AB27B685A85C4E07B685B8D9BB2032BF0
:102CEC0029D17B681B685A687B681B6822F4806258
:102CFC005A60FB68042B0AD0FB68022B07D07B6858
:102D0C001B681A687B681B6822F480621A607B68F7
:102D1C001B681A697B685B6AD2B21A707B685B6A43
:102D2C005A1C7B685A627B685B8D9BB2013B9AB2E2
:102D3C007B685A8595E07B685B8D9BB2022B7DD1BD
:102D4C00FB68012B02D0FB68102B08D17B681B6839
:102D5C001A687B681B6822F480621A6016E0FB68B4
:102D6C00042B02D0FB68022B08D17B681B681A6805
:102D7C007B681B6842F480621A6007E07B681B6802
:102D8C001A687B681B6842F400721A607B681B68C7
:102D9C001A697B685B6AD2B21A707B685B6A5A1CD0
:102DAC007B685A627B685B8D9BB2013B9AB27B68F5
:102DBC005A857B681B681A697B685B6AD2B21A7089
:102DCC007B685B6A5A1C7B685A627B685B8D9BB222
:102DDC00013B9AB27B685A857B681B685A687B6892
:102DEC001B6822F440725A607B68202283F83D20D5
:102DFC007B6893F83E30DBB2402B0AD17B68002213
:102E0C0083F83E207B6800221A637868FFF7AFFCDA
:102E1C0027E07B68002283F83E20FB68082B02D059
:102E2C00FB68202B03D17B6800221A6302E07B68CD
:102E3C0012221A637868FFF760FC12E07B681B684B
:102E4C001A697B685B6AD2B21A707B685B6A5A1C1F
:102E5C007B685A627B685B8D9BB2013B9AB27B6844
:102E6C005A8500BF1037BD4680BD80B483B000AF1B
:102E7C0078607B6893F83E30DBB2402B17D17B68CF
:102E8C001B6D002B09D17B685B6CDBB21A467B682F
:102E9C001B6802F0FE021A6167E07B685B6CDBB2B8
:102EAC0043F00103DAB27B681B681A615DE07B6852
:102EBC001B69B3F5804F33D17B6893F83D30DBB29F
:102ECC00212B09D17B685B6CDBB21A467B681B68D3
:102EDC0002F0FE021A6108E07B685B6CDBB243F027
:102EEC000103DAB27B681B681A617B685B6B002B91
:102EFC0004D07B685B6B9B6A002B08D17B689B6B57
:102F0C00002B32D07B689B6B9B6A002B2DD07B688F
:102F1C001B685A687B681B6842F400625A6024E0A4
:102F2C007B681B6D002B0ED17B685B6C9BB2DB113D
:102F3C00DBB203F00603DBB263F00F03DAB27B689B
:102F4C001B681A6111E07B681B6D012B0DD17B682E
:102F5C005B6C9BB2DB11DBB203F00603DBB263F0FC
:102F6C000E03DAB27B681B681A6100BF0C37BD46D2
:102F7C0080BC704780B483B000AF78607B685B6CBA
:102F8C00DAB27B681B681A617B685B6B002B04D020
:102F9C007B685B6B9B6A002B08D17B689B6B002B5F
:102FAC000CD07B689B6B9B6A002B07D07B681B68E3
:102FBC005A687B681B6842F400625A6000BF0C3789
:102FCC00BD4680BC704780B491B000AF78607B6820
:102FDC0093F83E3087F83F307B68DB6ABB637B68D5
:102FEC001B6B7B637B6893F83D30DBB2222B40F08C
:102FFC0074817B681B6D002B0FD197F83F30402BF1
:10300C000BD100233B637B681B685B693B637B686C
:10301C001B689B693B633B6B6BE17B681B6D002BF7
:10302C001DD17B681B69B3F5404F18D10023FB629F
:10303C007B681B685B69FB627B681B689B69FB6236
:10304C00FB6A7B681B681A687B681B6842F4807299
:10305C001A607B681B6D5A1C7B681A6549E17B689A
:10306C005B8D9BB2002B13D10023BB627B681B686A
:10307C005B69BB627B681B689B69BB62BB6A7B68D4
:10308C001B681A687B681B6842F400721A6020E1A6
:10309C007B685B8D9BB2012B40F08A80BB6B13F578
:1030AC00803F37D17B681B681A687B681B6822F4E9
:1030BC0080621A607B681B685B6803F40063B3F57D
:1030CC00006F13D17B681B681A687B681B6822F43D
:1030DC0080621A6000237B627B681B685B697B6281
:1030EC007B681B689B697B627B6AF2E000233B6216
:1030FC007B681B685B693B627B681B689B693B62F6
:10310C003B6A7B681B681A687B681B6842F4007218
:10311C001A60DEE0BB6B082B2ED0BB6B202B2BD0A8
:10312C007B6B122B02D1BB6B012B25D1BB6B042B00
:10313C000ED0BB6B022B0BD0BB6B102B08D07B685B
:10314C001B681A687B681B6822F480621A6007E0AF
:10315C007B681B681A687B681B6842F480621A6083
:10316C000023FB617B681B685B69FB617B681B68E8
:10317C009B69FB61FB69ACE07B681B681A687B6828
:10318C001B6822F480621A600023BB617B681B6899
:10319C005B69BB617B681B689B69BB61BB697B68B6
:1031AC001B681A687B681B6842F400721A6090E016
:1031BC007B685B8D9BB2022B58D1BB6B042B21D04F
:1031CC00BB6B022B1ED0BB6B102B1BD07B681B6800
:1031DC001A687B681B6842F400621A6000237B61EA
:1031EC007B681B685B697B617B681B689B697B6187
:1031FC007B697B681B681A687B681B6822F4806299
:10320C001A6012E07B681B681A687B681B6842F4C2
:10321C0080621A6000233B617B681B685B693B61C1
:10322C007B681B689B693B613B697B681B685B68BF
:10323C0003F40063B3F5006F4BD1BB6B13F5803F08
:10324C000BD0BB6B012B08D0BB6B082B05D0BB6B19
:10325C00102B02D0BB6B202B3BD17B681B685A68B0
:10326C007B681B6842F480525A6032E07B681B68B2
:10327C001A687B681B6842F480621A607B681B6862
:10328C005B6803F40063B3F5006F17D1BB6B13F5E8
:10329C00803F0BD0BB6B012B08D0BB6B082B05D030
:1032AC00BB6B102B02D0BB6B202B07D17B681B6830
:1032BC005A687B681B6842F480525A600023FB609A
:1032CC007B681B685B69FB607B681B689B69FB60A8
:1032DC00FB687B6800221A650BE00023BB607B68EF
:1032EC001B685B69BB607B681B689B69BB60BB68C8
:1032FC00FFE700BF4437BD4680BC704780B584B043
:10330C0000AF78607B6893F83D30FB737B685B8D16
:10331C009BB2002B2BD07B685B6A1A787B681B688E
:10332C001A617B685B6A5A1C7B685A627B685B8D8E
:10333C009BB2013B9AB27B685A857B685B8D9BB2D2
:10334C00002B14D1FB7B292B11D17B681B685A688D
:10335C007B681B6822F480625A607B6821221A63A6
:10336C007B68282283F83D207868FFF7CFF900BFEF
:10337C001037BD4680BD80B483B000AF78607B68E9
:10338C005B8D9BB2002B11D07B685B6A1A787B68D3
:10339C001B681A617B685B6A5A1C7B685A627B6883
:1033AC005B8D9BB2013B9AB27B685A8500BF0C3790
:1033BC00BD4680BC704780B584B000AF78607B6838
:1033CC0093F83D30FB737B685B8D9BB2002B2CD04C
:1033DC007B681B681A697B685B6AD2B21A707B685F
:1033EC005B6A5A1C7B685A627B685B8D9BB2013BA3
:1033FC009AB27B685A857B685B8D9BB2002B14D18B
:10340C00FB7B2A2B11D17B681B685A687B681B6875
:10341C0022F480625A607B6822221A637B6828221D
:10342C0083F83D207868FFF77AF900BF1037BD4666
:10343C0080BD80B483B000AF78607B685B8D9BB23D
:10344C00002B12D07B681B681A697B685B6AD2B24E
:10345C001A707B685B6A5A1C7B685A627B685B8D4E
:10346C009BB2013B9AB27B685A8500BF0C37BD46B4
:10347C0080BC704780B584B000AF786039600023A1
:10348C00FB737B6893F83D30DBB203F02803282BE9
:10349C0027D17B681B685A687B681B6822F48062A2
:1034AC005A603B689B0803F00103002B01D10123F8
:1034BC00FB733B68DB0903F00103002B03D17B6832
:1034CC00DB68BB8102E07B689B69BB817B68002267
:1034DC0083F83C20BA89FB7B19467868FFF728F9FA
:1034EC000EE00023BB607B681B685B69BB607B687C
:1034FC001B689B69BB60BB687B68002283F83C201F
:10350C0000BF1037BD4680BD80B584B000AF786079
:10351C007B6893F83D30FB737B681B685A687B684B
:10352C001B6822F4E0625A600023BB607B681B6856
:10353C005B69BB607B681B681A687B681B6842F020
:10354C0001021A60BB687B681B681A687B681B6881
:10355C0022F480621A607B681B685B6803F400636A
:10356C00B3F5006F72D1FB7B222B02D0FB7B2A2B95
:10357C0035D17B689B6B1B685B689AB27B685A85FC
:10358C007B685B8D9BB2002B05D07B681B6C43F07A
:10359C0004027B681A647B681B685A687B681B682A
:1035AC0022F400625A607B689B6B1846FDF7F2FFB1
:1035BC000346012B49D07B689B6B694A5A637B6835
:1035CC009B6B1846FDF76EFF0346002B3DD07B68C6
:1035DC009B6B5B6B7A68926B1046984735E07B6807
:1035EC005B6B1B685B689AB27B685A857B685B8DEA
:1035FC009BB2002B05D07B681B6C43F004027B68EC
:10360C001A647B681B685A687B681B6822F400622A
:10361C005A607B685B6B1846FDF7BCFF0346012BB9
:10362C0014D07B685B6B4E4A5A637B685B6B1846A5
:10363C00FDF738FF0346002B08D07B685B6B5B6B98
:10364C007A68526B1046984700E000BF7B685B8D30
:10365C009BB2002B3ED07B681B685B6903F00403B4
:10366C00042B12D17B681B681A697B685B6AD2B227
:10367C001A707B685B6A5A1C7B685A627B685B8D2C
:10368C009BB2013B9AB27B685A857B681B685B696D
:10369C0003F04003402B12D17B681B681A697B68CE
:1036AC005B6AD2B21A707B685B6A5A1C7B685A627E
:1036BC007B685B8D9BB2013B9AB27B685A857B68B9
:1036CC005B8D9BB2002B05D07B681B6C43F0040216
:1036DC007B681A647B681B6C002B03D0786800F045
:1036EC00B7F839E0FB7B2A2B09D17B6800221A63DF
:1036FC007B68282283F83D207868FFF710F87B68F8
:10370C0093F83D30DBB2282B11D17B68154ADA6275
:10371C007B6800221A637B68202283F83D207B683B
:10372C00002283F83E207868FFF70FF814E07B68DE
:10373C001B6B222B02D0FB7B222B0DD17B68002232
:10374C001A637B68202283F83D207B68002283F873
:10375C003E207868FEF7E3FF00BF1037BD4680BD02
:10376C00BD3D00080000FFFF80B584B000AF78605D
:10377C007B6893F83D30FB737B68DB6ABB60BB688E
:10378C00082B02D0BB68202B29D1FB7B282B26D100
:10379C007B682E4ADA627B681B685A687B681B68F8
:1037AC0022F4E0625A607B681B686FF480625A6195
:1037BC007B681B681A687B681B6822F480621A603D
:1037CC007B6800221A637B68202283F83D207B688B
:1037DC00002283F83E207868FEF7B7FF31E0FB7BD0
:1037EC00212B29D17B68194ADA627B6821221A6362
:1037FC007B68202283F83D207B68002283F83E20E2
:10380C007B681B685A687B681B6822F4E0625A600C
:10381C007B681B686FF480625A617B681B681A684E
:10382C007B681B6822F480621A607868FEF7BAF92C
:10383C007868FEF76BFF04E07B681B686FF48062AE
:10384C005A6100BF1037BD4680BD00BF0000FFFFAE
:10385C0080B584B000AF78607B6893F83D30FB7323
:10386C007B6893F83E30BB73BB7B102B02D0BB7BC9
:10387C00402B0AD1FB7B222B07D17B681B681A6873
:10388C007B681B6822F400621A60FB7B03F0280340
:10389C00282B07D17B6800221A637B68282283F8C7
:1038AC003D2015E07B681B685B6803F40063B3F58F
:1038BC00006F0AD0FB7B602B07D07B68202283F83B
:1038CC003D207B68002283F83E207B6800221A632F
:1038DC007B681B685B6803F40063B3F5006F62D10F
:1038EC007B681B685A687B681B6822F400625A600C
:1038FC007B685B6B93F82130DBB2012B20D07B68AB
:10390C005B6B6A4A5A637B685B6B1846FDF7CAFDB2
:10391C000346002B00F089807B681B681A687B6863
:10392C001B6822F001021A607B68202283F83D207C
:10393C007B685B6B5B6B7A68526B1046984774E0E4
:10394C007B689B6B594A5A637B689B6B1846FDF7E7
:10395C00A9FD0346002B68D07B681B685B6903F0EC
:10396C004003402B0BD17B681B681A697B685B6A30
:10397C00D2B21A707B685B6A5A1C7B685A627B688D
:10398C001B681A687B681B6822F001021A607B684E
:10399C00202283F83D207B689B6B5B6B7A68926B73
:1039AC001046984741E07B6893F83D30DBB2602BC2
:1039BC0025D17B68202283F83D207B6800221A6485
:1039CC007B681B685B6903F04003402B0BD17B6861
:1039DC001B681A697B685B6AD2B21A707B685B6A77
:1039EC005A1C7B685A627B681B681A687B681B6868
:1039FC0022F001021A607868FEF7CBFE15E07B68B6
:103A0C001B685B6903F04003402B0BD17B681B6880
:103A1C001A697B685B6AD2B21A707B685B6A5A1C43
:103A2C007B685A627868FEF7ABFE7B681B6CBB60E8
:103A3C00BB6803F00103002B0ED1BB6803F002033B
:103A4C00002B09D1BB6803F00403002B04D1BB6825
:103A5C0003F00803002B07D07B681B685A687B684F
:103A6C001B6822F4E0625A607B6893F83D30FB736C
:103A7C007B681B6C03F00403042B13D1FB7B282BFA
:103A8C0010D17B680A4ADA627B6800221A637B6871
:103A9C00202283F83D207B68002283F83E20786842
:103AAC00FEF753FE00BF1037BD4680BDBD3D00087C
:103ABC000000FFFF80B588B002AFF86008461146E1
:103ACC001A4603467B810B463B811346FB80FB6801
:103ADC001B681A68FB681B6842F480721A607B6A68
:103AEC0000933B6A00224FF00111F86800F008FACD
:103AFC000346002B0DD0FB681B681B6803F4807316
:103B0C00B3F5807F03D1FB684FF400721A64032372
:103B1C005FE07B89DBB21A46FB681B6802F0FE0291
:103B2C001A617B6A3A6A2D49F86800F063FA034619
:103B3C00002B01D001234CE000237B61FB681B6848
:103B4C005B697B61FB681B689B697B617B697A6A3B
:103B5C00396AF86800F0EEFA0346002B0DD0FB68CA
:103B6C001B6C042B07D1FB681B681A68FB681B686D
:103B7C0042F400721A6001232BE0FB88012B05D163
:103B8C003B89DAB2FB681B681A6121E03B891B0A8E
:103B9C009BB2DAB2FB681B681A617A6A396AF868F8
:103BAC0000F0C8FA0346002B0DD0FB681B6C042BED
:103BBC0007D1FB681B681A68FB681B6842F400722B
:103BCC001A60012305E03B89DAB2FB681B681A61B5
:103BDC00002318461837BD4680BD00BF0200010007
:103BEC0080B588B002AFF860084611461A46034605
:103BFC007B810B463B811346FB80FB681B681A6874
:103C0C00FB681B6842F480621A60FB681B681A68C8
:103C1C00FB681B6842F480721A607B6A00933B6AF3
:103C2C0000224FF00111F86800F06AF90346002BEE
:103C3C000DD0FB681B681B6803F48073B3F5807FA1
:103C4C0003D1FB684FF400721A640323AAE07B894A
:103C5C00DBB21A46FB681B6802F0FE021A617B6A33
:103C6C003A6A5249F86800F0C5F90346002B01D0B6
:103C7C00012397E000237B61FB681B685B697B6118
:103C8C00FB681B689B697B617B697A6A396AF86897
:103C9C0000F050FA0346002B0DD0FB681B6C042B74
:103CAC0007D1FB681B681A68FB681B6842F400723A
:103CBC001A60012376E0FB88012B05D13B89DAB22F
:103CCC00FB681B681A6121E03B891B0A9BB2DAB2C4
:103CDC00FB681B681A617A6A396AF86800F02AFA7C
:103CEC000346002B0DD0FB681B6C042B07D1FB6823
:103CFC001B681A68FB681B6842F400721A60012387
:103D0C0050E03B89DAB2FB681B681A617A6A396A3F
:103D1C00F86800F00FFA0346002B0DD0FB681B6C03
:103D2C00042B07D1FB681B681A68FB681B6842F4FC
:103D3C0000721A60012335E0FB681B681A68FB6887
:103D4C001B6842F480721A607B6A00933B6A002203
:103D5C004FF00111F86800F0D3F80346002B0DD09A
:103D6C00FB681B681B6803F48073B3F5807F03D179
:103D7C00FB684FF400721A64032313E07B89DBB2F7
:103D8C0043F00103DAB2FB681B681A617B6A3A6A7A
:103D9C000649F86800F02EF90346002B01D00123E8
:103DAC0000E0002318461837BD4680BD0200010014
:103DBC0080B586B000AF78600023FB607B685B6ADF
:103DCC007B617B6993F83D30FB744B4B1B68DB08C4
:103DDC004A4AA2FB03231A0A13469B001344DA0037
:103DEC00D31AFB60FB68002B06D17B691B6C43F07C
:103DFC0020027B691A640AE0FB68013BFB607B696B
:103E0C001B681B6803F40073B3F5007FEAD07B6971
:103E1C005B6B002B03D07B695B6B00229A627B6926
:103E2C009B6B002B03D07B699B6B00229A627B6996
:103E3C001B681A687B691B6822F480621A607B69B4
:103E4C0000225A857B695B6B002B03D07B695B6B13
:103E5C0000225A637B699B6B002B03D07B699B6BA5
:103E6C0000225A637B691B681A687B691B6822F005
:103E7C0001021A607B6993F83D30DBB2602B0ED1E6
:103E8C007B69202283F83D207B69002283F83E2049
:103E9C007B6900221A647869FEF77BFC27E0FB7CC7
:103EAC0003F02803282B17D17B691B681A687B69E0
:103EBC001B6842F001021A607B691B681A687B69F7
:103ECC001B6842F480621A607B6900221A637B696A
:103EDC00282283F83D2007E07B69202283F83D20CF
:103EEC007B69002283F83E207869FEF749FC00BF0D
:103EFC001837BD4680BD00BF0000002089B5F814FE
:103F0C0080B584B000AFF860B9603B601346FB71BC
:103F1C0048E03B68B3F1FF3F44D0FCF77BFE024620
:103F2C00BB69D31A3A689A4202D33B68002B39D149
:103F3C00BB681B0CDBB2012B0DD1FB681B685B69EA
:103F4C00DA43BB6813409BB2002B0CBF0123002348
:103F5C00DBB21A460CE0FB681B689B69DA43BB6852
:103F6C0013409BB2002B0CBF01230023DBB21A467B
:103F7C00FB799A4216D1FB6800221A63FB68202257
:103F8C0083F83D20FB68002283F83E20FB681B6C05
:103F9C0043F02002FB681A64FB68002283F83C2083
:103FAC00012323E0BB681B0CDBB2012B0DD1FB689A
:103FBC001B685B69DA43BB6813409BB2002B0CBFD8
:103FCC0001230023DBB21A460CE0FB681B689B69DB
:103FDC00DA43BB6813409BB2002B0CBF01230023B8
:103FEC00DBB21A46FB799A4293D00023184610375D
:103FFC00BD4680BD80B584B000AFF860B9607A6012
:10400C003B6071E0FB681B685B6903F48063B3F58C
:10401C00806F23D1FB681B681A68FB681B6842F42D
:10402C0000721A60FB681B686FF480625A61FB684F
:10403C0000221A63FB68202283F83D20FB680022D3
:10404C0083F83E20FB681B6C43F00402FB681A6487
:10405C00FB68002283F83C20012367E07B68B3F106
:10406C00FF3F41D0FCF7D6FD02463B68D31A7A6875
:10407C009A4202D37B68002B36D1BB681B0CDBB297
:10408C00012B0CD1FB681B685B69DA43BB681340DE
:10409C009BB2002B14BF01230023DBB20BE0FB68A7
:1040AC001B689B69DA43BB6813409BB2002B14BF9F
:1040BC0001230023DBB2002B16D0FB6800221A630D
:1040CC00FB68202283F83D20FB68002283F83E2009
:1040DC00FB681B6C43F02002FB681A64FB6800222F
:1040EC0083F83C20012321E0BB681B0CDBB2012BC5
:1040FC000CD1FB681B685B69DA43BB6813409BB24D
:10410C00002B14BF01230023DBB20BE0FB681B6800
:10411C009B69DA43BB6813409BB2002B14BF01238D
:10412C000023DBB2002B7FF46DAF00231846103751
:10413C00BD4680BD80B584B000AFF860B9607A60D0
:10414C0034E0F86800F015F90346002B01D0012388
:10415C0034E0BB68B3F1FF3F28D0FCF75BFD0246AF
:10416C007B68D31ABA689A4202D3BB68002B1DD164
:10417C00FB681B685B6903F08003802B16D0FB681F
:10418C0000221A63FB68202283F83D20FB68002282
:10419C0083F83E20FB681B6C43F02002FB681A641A
:1041AC00FB68002283F83C20012307E0FB681B68B6
:1041BC005B6903F08003802BC3D1002318461037B2
:1041CC00BD4680BD80B584B000AFF860B9607A6040
:1041DC0034E0F86800F0CDF80346002B01D0012341
:1041EC0034E0BB68B3F1FF3F28D0FCF713FD024667
:1041FC007B68D31ABA689A4202D3BB68002B1DD1D4
:10420C00FB681B685B6903F00403042B16D0FB6886
:10421C0000221A63FB68202283F83D20FB680022F1
:10422C0083F83E20FB681B6C43F02002FB681A6489
:10423C00FB68002283F83C20012307E0FB681B6825
:10424C005B6903F00403042BC3D100231846103719
:10425C00BD4680BD80B485B000AF78600023FB60A4
:10426C00134B1B68DB08134AA2FB03231A0A1346E1
:10427C009B001344FB60FB68013BFB60FB68002B5D
:10428C0007D17B681B6C43F020027B681A64012306
:10429C0008E07B681B681B6803F40073B3F5007FB0
:1042AC00E9D0002318461437BD4680BC704700BFC8
:1042BC000000002089B5F81480B584B000AFF86018
:1042CC00B9607A6049E0FB681B685B6903F0100316
:1042DC00102B19D1FB681B686FF010025A61FB6838
:1042EC0000221A63FB68202283F83D20FB68002221
:1042FC0083F83E20FB681A6CFB681A64FB6800228A
:10430C0083F83C20012330E0FCF784FC02467B68F8
:10431C00D31ABA689A4202D3BB68002B1DD1FB6832
:10432C001B685B6903F04003402B16D0FB6800222E
:10433C001A63FB68202283F83D20FB68002283F877
:10434C003E20FB681B6C43F02002FB681A64FB6880
:10435C00002283F83C20012307E0FB681B685B69A3
:10436C0003F04003402BAED1002318461037BD4656
:10437C0080BD80B483B000AF78607B681B685B69DC
:10438C0003F48063B3F5806F1BD17B681B686FF4FB
:10439C0080625A617B6800221A637B68202283F852
:1043AC003D207B68002283F83E207B681B6C43F029
:1043BC0004027B681A647B68002283F83C2001238A
:1043CC0000E0002318460C37BD4680BC704780B413
:1043DC0083B000AF78607B68DB6AB3F52A0F03D13A
:1043EC007B680122DA6207E07B68DB6AB3F12A4F53
:1043FC0002D17B680822DA6200BF0C37BD4680BC54
:10440C007047000080B586B000AF78607B68002BE9
:10441C0001D1012372E27B681B6803F00103002BBE
:10442C0000F08780924B5B6803F00C03042B0CD0DC
:10443C008F4B5B6803F00C03082B12D18C4B5B6821
:10444C0003F48033B3F5803F0BD1894B1B6803F425
:10445C000033002B6CD07B685B68002B68D1012388
:10446C004CE27B685B68B3F5803F06D1804B1B68E0
:10447C007F4A43F4803313602EE07B685B68002B2B
:10448C000CD17B4B1B687A4A23F480331360784B36
:10449C001B68774A23F4802313601DE07B685B68FC
:1044AC00B3F5A02F0CD1724B1B68714A43F48023D7
:1044BC0013606F4B1B686E4A43F4803313600BE040
:1044CC006B4B1B686A4A23F480331360684B1B6880
:1044DC00674A23F4802313607B685B68002B13D03E
:1044EC00FCF798FB386108E0FCF794FB02463B694B
:1044FC00D31A642B01D9032300E25D4B1B6803F430
:10450C000033002BF0D014E0FCF784FB386108E09A
:10451C00FCF780FB02463B69D31A642B01D90323B9
:10452C00ECE1534B1B6803F40033002BF0D100E09B
:10453C0000BF7B681B6803F00203002B63D04C4B5D
:10454C005B6803F00C03002B0BD0494B5B6803F04A
:10455C000C03082B1CD1464B5B6803F48033002BF7
:10456C0016D1434B1B6803F00203002B05D07B686C
:10457C001B69012B01D00123C0E13D4B1B6823F0CB
:10458C00F8027B685B69DB00394913430B603AE046
:10459C007B681B69002B20D0364B01221A60FCF77C
:1045AC0039FB386108E0FCF735FB02463B69D31A4E
:1045BC00022B01D90323A1E12D4B1B6803F002034D
:1045CC00002BF0D02A4B1B6823F0F8027B685B6948
:1045DC00DB00274913430B6015E0264B00221A60C1
:1045EC00FCF718FB386108E0FCF714FB02463B694A
:1045FC00D31A022B01D9032380E11D4B1B6803F056
:10460C000203002BF0D17B681B6803F00803002B1E
:10461C003AD07B689B69002B19D0174B01221A608A
:10462C00FCF7F8FA386108E0FCF7F4FA02463B694B
:10463C00D31A022B01D9032360E10D4B5B6A03F003
:10464C000203002BF0D0012000F0BAFA1CE00A4B58
:10465C0000221A60FCF7DEFA38610FE0FCF7DAFA98
:10466C0002463B69D31A022B08D9032346E100BF4B
:10467C00001002400000424280044242924B5B6AAE
:10468C0003F00203002BE9D17B681B6803F00403E1
:10469C00002B00F0A6800023FB758B4BDB6903F02D
:1046AC008053002B0DD1884BDB69874A43F0805334
:1046BC00D361854BDB6903F08053BB60BB6801237E
:1046CC00FB75824B1B6803F48073002B18D17F4B56
:1046DC001B687E4A43F480731360FCF79BFA3861C5
:1046EC0008E0FCF797FA02463B69D31A642B01D910
:1046FC00032303E1754B1B6803F48073002BF0D08C
:10470C007B68DB68012B06D16F4B1B6A6E4A43F04A
:10471C00010313622DE07B68DB68002B0CD16A4B24
:10472C001B6A694A23F001031362674B1B6A664AD2
:10473C0023F0040313621CE07B68DB68052B0CD1AF
:10474C00614B1B6A604A43F0040313625E4B1B6AA5
:10475C005D4A43F0010313620BE05B4B1B6A5A4A40
:10476C0023F001031362584B1B6A574A23F00403CE
:10477C0013627B68DB68002B15D0FCF74BFA3861B1
:10478C000AE0FCF747FA02463B69D31A41F2883239
:10479C00934201D90323B1E04B4B1B6A03F0020394
:1047AC00002BEED014E0FCF735FA38610AE0FCF788
:1047BC0031FA02463B69D31A41F28832934201D94D
:1047CC0003239BE0404B1B6A03F00203002BEED14A
:1047DC00FB7D012B05D13C4BDB693B4A23F080531D
:1047EC00D3617B68DB69002B00F08780364B5B68FC
:1047FC0003F00C03082B61D07B68DB69022B46D1DC
:10480C00334B00221A60FCF705FA386108E0FCF71C
:10481C0001FA02463B69D31A022B01D903236DE03E
:10482C00294B1B6803F00073002BF0D17B681B6ACB
:10483C00B3F5803F08D1244B5B6823F400327B68CE
:10484C009B68214913434B601F4B5B6823F4741224
:10485C007B68196A7B685B6A0B431B4913434B608B
:10486C001B4B01221A60FCF7D5F9386108E0FCF704
:10487C00D1F902463B69D31A022B01D903233DE03F
:10488C00114B1B6803F00073002BF0D035E0104B7C
:10489C0000221A60FCF7BEF9386108E0FCF7BAF99F
:1048AC0002463B69D31A022B01D9032326E0064B9F
:1048BC001B6803F00073002BF0D11EE07B68DB69F2
:1048CC00012B07D1012319E00010024000700040B9
:1048DC00600042420B4B5B68FB60FB6803F4803268
:1048EC007B681B6A9A4206D1FB6803F470127B68E2
:1048FC005B6A9A4201D0012300E000231846183766
:10490C00BD4680BD0010024080B584B000AF786019
:10491C0039607B68002B01D10123D0E06A4B1B6806
:10492C0003F007033A689A4210D9674B1B6823F0CF
:10493C00070265493B6813430B60634B1B6803F02C
:10494C0007033A689A4201D00123B8E07B681B68E0
:10495C0003F00203002B20D07B681B6803F00403D8
:10496C00002B05D0594B5B68584A43F4E063536005
:10497C007B681B6803F00803002B05D0534B5B6866
:10498C00524A43F460535360504B5B6823F0F0027F
:10499C007B689B684D4913434B607B681B6803F035
:1049AC000103002B40D07B685B68012B07D1474B80
:1049BC001B6803F40033002B15D101237FE07B68C7
:1049CC005B68022B07D1414B1B6803F00073002B73
:1049DC0009D1012373E03D4B1B6803F00203002B4C
:1049EC0001D101236BE0394B5B6823F003027B6838
:1049FC005B68364913434B60FCF70CF9F8600AE02E
:104A0C00FCF708F90246FB68D31A41F2883293424C
:104A1C0001D9032353E02D4B5B6803F00C027B6838
:104A2C005B689B009A42EBD1274B1B6803F0070392
:104A3C003A689A4210D2244B1B6823F00702224991
:104A4C003B6813430B60204B1B6803F007033A6869
:104A5C009A4201D0012332E07B681B6803F0040307
:104A6C00002B08D0194B5B6823F4E0627B68DB6891
:104A7C00164913434B607B681B6803F00803002B3B
:104A8C0009D0124B5B6823F460527B681B69DB0016
:104A9C000E4913434B6000F021F802460B4B5B6848
:104AAC001B0903F00F030A49CB5C22FA03F3094AF2
:104ABC001360094B1B681846FCF76AF8002318466C
:104ACC001037BD4680BD00BF0020024000100240E0
:104ADC00784C0008000000200400002080B487B04F
:104AEC0000AF0023FB600023BB6000237B6100232D
:104AFC007B6000233B611E4B5B68FB60FB6803F033
:104B0C000C03042B02D0082B03D027E0194B3B617C
:104B1C0027E0FB689B0C03F00F03174AD35C7B6008
:104B2C00FB6803F48033002B10D0114B5B685B0CDB
:104B3C0003F00103114AD35CBB607B680D4A03FB95
:104B4C0002F2BB68B2FBF3F37B6104E07B680C4AB6
:104B5C0002FB03F37B617B693B6102E0054B3B612C
:104B6C0000BF3B6918461C37BD4680BC704700BF70
:104B7C000010024000127A00904C0008A04C000873
:104B8C0000093D0080B400AF024B1B681846BD46BF
:104B9C0080BC70470000002080B500AFFFF7F2FF2B
:104BAC000246054B5B681B0A03F007030349CB5C09
:104BBC0022FA03F3184680BD00100240884C00080E
:104BCC0080B485B000AF78600A4B1B680A4AA2FB20
:104BDC0003235B0A7A6802FB03F3FB6000BFFB68EC
:104BEC005A1EFA60002BF9D100BF00BF1437BD4626
:104BFC0080BC704700000020D34D62100346024475
:104C0C00934200D1704703F8011BF9E770B50026F9
:104C1C000C4D0D4C641BA410A64209D100F01AF8DF
:104C2C0000260A4D0A4C641BA410A64205D170BD87
:104C3C0055F8043B98470136EEE755F8043B984786
:104C4C000136F2E7A44C0008A44C0008A44C000860
:104C5C00A84C0008F8B500BFF8BC08BC9E467047CD
:0C4C6C00F8B500BFF8BC08BC9E467047BD
:104C78000000000000000000010203040607080904
:104C880000000000010203040203040506070809E6
:0C4C98000A0B0C0D0E0F101001020000A2
:044CA40031010008D2
:044CA8000D010008F2
:0C4CAC0000127A0010000000010000005F
:0400000508000B25BF
:00000001FF
