:020000040800F2
:1000000000500020010C00089D0B0008A50B000803
:10001000AD0B0008B50B0008BD0B00080000000088
:10002000000000000000000000000000C50B0008F8
:10003000D10B000800000000DD0B0008E90B0008F0
:10004000490C0008490C0008490C0008490C00083C
:10005000490C0008490C0008490C0008490C00082C
:10006000490C0008490C0008490C0008490C00081C
:10007000490C0008490C0008490C0008490C00080C
:10008000490C0008490C0008490C0008490C0008FC
:10009000490C0008490C0008490C0008490C0008EC
:1000A000490C0008490C0008490C0008490C0008DC
:1000B000490C0008490C0008490C0008490C0008CC
:1000C000490C0008490C0008490C0008490C0008BC
:1000D000490C0008490C0008490C0008490C0008AC
:1000E000490C0008490C0008490C000800000000F9
:1000F0000000000000000000000000000000000000
:0C01000000000000000000005FF808F1A3
:10010C0010B5054C237833B9044B13B10448AFF345
:10011C0000800123237010BD0C00002000000000A3
:10012C00D82D000808B5034B1BB103490348AFF3A6
:10013C00008008BD0000000010000020D82D000831
:10014C0080B586B000AF786007F1080300221A6012
:10015C005A609A6005233B610123FB600023BB605E
:10016C0007F1080319468D4801F0B4F80346002B3B
:10017C000BD08B4B1B680133894A1360082200217A
:10018C00786802F0F7FD012303E1844800F0B6FE25
:10019C000346002B0BD0824B1B680133804A136043
:1001AC0008220021786802F0E5FD0123F1E00A2124
:1001BC007A4800F07DFF0346FB75FB7D002B0ED0CB
:1001CC00774B1B680133764A1360744800F044FF88
:1001DC0008220021786802F0CDFDFB7DD9E06F4844
:1001EC0001F06CF803469AB27B681A806B4800F0F9
:1001FC0033FF0123BB6007F108031946674801F080
:10020C0069F80346002B09D0654B1B680133644A1F
:10021C0013607B6800225A800123BAE05F4800F02B
:10022C006DFE0346002B09D05D4B1B6801335C4A05
:10023C0013607B6800225A800123AAE00A215748E8
:10024C0000F036FF0346FB75FB7D002B0CD0544BA6
:10025C001B680133524A1360504800F0FDFE7B6866
:10026C0000225A80FB7D94E04C4801F027F80346AD
:10027C009AB27B685A80494800F0EEFE0223BB60BC
:10028C0007F108031946454801F024F80346002BF2
:10029C0009D0434B1B680133414A13607B68002231
:1002AC009A80012375E03D4800F028FE0346002BA0
:1002BC0009D03B4B1B680133394A13607B68002221
:1002CC009A80012365E00A21344800F0F1FE0346D0
:1002DC00FB75FB7D002B0CD0314B1B680133304A76
:1002EC0013602E4800F0B8FE7B6800229A80FB7DDC
:1002FC004FE02A4800F0E2FF03469AB27B689A80EE
:10030C00264800F0A9FE0323BB6007F10803194639
:10031C00224800F0DFFF0346002B09D0204B1B685E
:10032C0001331F4A13607B680022DA80012330E01E
:10033C001A4800F0E3FD0346002B09D0184B1B684C
:10034C000133174A13607B680022DA80012320E016
:10035C000A21124800F0ACFE0346FB75FB7D002B16
:10036C000CD00F4B1B6801330D4A13600B4800F087
:10037C0073FE7B680022DA80FB7D0AE0074800F000
:10038C009DFF03469AB27B68DA80044800F064FE55
:10039C00002318461837BD4680BD00BF280000203A
:1003AC008800002080B58AB000AF786000237B62A3
:1003BC0000233B620023FB610023BB610023FB7520
:1003CC000023BB7500237B7526E007F10C03184650
:1003DC00FFF7B6FE03463B753B7D002B17D1BB895F
:1003EC001A467B6A13447B62FB891A463B6A1344A8
:1003FC003B623B8A1A46FB691344FB617B8A1A46B3
:10040C00BB691344BB61FB7D0133FB7501E03B7D94
:10041C00BB757B7D01337B757B7D032BD5D9FB7D38
:10042C00002B1DD0FB7D7A6AB2FBF3F39AB27B688A
:10043C001A80FB7D3A6AB2FBF3F39AB27B685A805E
:10044C00FB7DFA69B2FBF3F39AB27B689A80FB7D71
:10045C00BA69B2FBF3F39AB27B68DA80002305E049
:10046C0008220021786802F085FCBB7D18462837ED
:10047C00BD4680BD80B584B000AF786000F038FC1C
:10048C00F86009E000F034FC0246FB68D31A7A6885
:10049C009A4201D8032306E0054801F034FC0346D8
:1004AC00002BEFD0002318461037BD4680BD00BF8F
:1004BC005800002080B58CB000AF786040F2022369
:1004CC007B6108237B6200233B620023FB610023DA
:1004DC0087F828300023BB617B681B881B0A9BB202
:1004EC00DBB23B737B681B88DBB27B737B685B88FE
:1004FC001B0A9BB2DBB2BB737B685B88DBB2FB7302
:10050C007B689B881B0A9BB2DBB23B747B689B8825
:10051C00DBB27B747B68DB881B0A9BB2DBB2BB74DF
:10052C007B68DB88DBB2FB740520FFF7A3FF034677
:10053C00002B09D0144B1B680133134A1360134B67
:10054C0004221A7003231BE007F1080307F10C02C5
:10055C0007F114010E4801F007FB034687F82F3012
:10056C0097F82F30002B0AD0074B1B680133064A33
:10057C001360064B04221A7097F82F3000E000230A
:10058C0018463037BD4680BD840000208000002016
:10059C005800002080B588B000AF0346FB71FB7992
:1005AC00FB77FB7F002B01D10523FB77204B9B694D
:1005BC001F4A43F0100393611D4B9B6903F010031A
:1005CC00BB60BB6807F10C0300221A605A609A608A
:1005DC00DA604FF40053FB6001233B610223BB61E3
:1005EC0007F10C031946134801F0A6FC0023BB7756
:1005FC0014E000224FF400510E4801F021FE962029
:10060C0000F080FB01224FF400510A4801F018FE63
:10061C00962000F077FBBB7F0133BB77BA7FFB7F63
:10062C009A42E6D34FF47A7000F06CFBDEE700BF21
:10063C00001002400010014080B592B000AF00F0F5
:10064C00FFFA00F08BF800F083F900F0E3F800F00B
:10065C0049F900224FF400513C4801F0F1FD3C48AF
:10066C0000F0CCFF07F1100328220021184602F0FD
:10067C0081FB00237B620023BB620123FB6200230E
:10068C003B6100237B610023BB610023FB610023E2
:10069C003B6201233B630E237B6307F11003194676
:1006AC002C4801F054F90346002B05D02A4B0322A9
:1006BC001A700320FFF76EFF264801F011FA03466B
:1006CC00002B05D0244B03221A700320FFF762FF86
:1006DC0007F108031846FFF733FD034687F83F3050
:1006EC0097F83F30002B05D01B4B02221A700220CA
:1006FC00FFF750FF01224FF40051144801F0A0FD08
:10070C0000F0F6FA786400233B6400F0F1FAB86369
:10071C00BA6B7B6CD31A132BF7D97B6C14337B64B9
:10072C003B461846FFF73EFE3B461846FFF7C2FE17
:10073C003B6C01333B643B6C182BE6D900233B64C8
:10074C004FF40051014801F093FDDEE70010014029
:10075C0028000020580000208000002080B594B0B4
:10076C0000AF07F1280328220021184602F002FBF3
:10077C0007F1140300221A605A609A60DA601A6159
:10078C003B1D00221A605A609A60DA600123BB623A
:10079C004FF48033FB6200233B630123BB630223D2
:1007AC007B644FF48033BB644FF4E013FB6407F1BC
:1007BC002803184601F076FD0346002B01D000F00B
:1007CC001FF90F237B610223BB610023FB614FF4F4
:1007DC0080633B6200237B6207F1140302211846FD
:1007EC0001F0E2FF0346002B01D000F009F90223CF
:1007FC007B604FF40043FB603B1D184602F04EF942
:10080C000346002B01D000F0FBF800BF5037BD466B
:10081C0080BD000080B584B000AF3B1D00221A6083
:10082C005A609A602D4B2E4A1A602C4B00229A600B
:10083C002A4B00221A73294B00221A75274B4FF4AE
:10084C006022DA61254B00225A60244B01221A6186
:10085C00224800F07BFA0346002B01D000F0D0F8C0
:10086C0000237B600123BB600523FB603B1D194605
:10087C001A4800F02FFD0346002B01D000F0C0F801
:10088C0001237B600223BB603B1D1946134800F01B
:10089C0021FD0346002B01D000F0B2F802237B604F
:1008AC000323BB603B1D19460C4800F013FD0346A7
:1008BC00002B01D000F0A4F803237B600423BB6061
:1008CC003B1D1946054800F005FD0346002B01D0E1
:1008DC0000F096F800BF1037BD4680BD2800002000
:1008EC000024014080B500AF174B184A1A60164B14
:1008FC0004225A60144B00229A60134B0022DA60D7
:10090C00114B4FF460221A610F4B4FF480125A6155
:10091C000D4B00221A760C4B01225A760A4B002200
:10092C009A76094B0022DA76074B00221A77064B8F
:10093C0000225A77044800F00FFF0346002B01D029
:10094C0000F05EF800BF80BD58000020006400403D
:10095C0080B588B000AF07F1100300221A605A600E
:10096C009A60DA60244B9B69234A43F00403936139
:10097C00214B9B6903F00403FB60FB681E4B9B69D6
:10098C001D4A43F0080393611B4B9B6903F008035A
:10099C00BB60BB68184B9B69174A43F0100393610B
:1009AC00154B9B6903F010037B607B68124B9B69B2
:1009BC00114A43F0200393610F4B9B6903F0200312
:1009CC003B603B6801224FF400510C4801F038FCAD
:1009DC004FF400533B6101237B610023BB61022375
:1009EC00FB6107F110031946044801F0A5FA00BF9A
:1009FC002037BD4680BD00BF0010024000100140F2
:100A0C0080B500AF044B05221A7072B600BF0520EA
:100A1C00FFF7C0FD00BF80BD8000002080B485B012
:100A2C0000AF154B9B69144A43F001039361124BC1
:100A3C009B6903F00103BB60BB680F4BDB690E4A7B
:100A4C0043F08053D3610C4BDB6903F080537B6024
:100A5C007B680A4B5B68FB60FB6823F0E063FB6020
:100A6C00FB6843F00073FB60044AFB68536000BFF3
:100A7C001437BD4680BC7047001002400000014096
:100A8C0080B588B000AF786007F1100300221A60BF
:100A9C005A609A60DA607B681B68144A934221D1D1
:100AAC00134B9B69124A43F400739361104B9B697F
:100ABC0003F40073FB60FB680D4B9B690C4A43F01D
:100ACC00040393610A4B9B6903F00403BB60BB688E
:100ADC0003233B6103237B6107F11003194605488F
:100AEC0001F02AFA00BF2037BD4680BD002401402A
:100AFC00001002400008014080B588B000AF78605B
:100B0C0007F1100300221A605A609A60DA607B6861
:100B1C001B681C4A934231D11B4BDB691A4A43F0C8
:100B2C000073D361184BDB6903F00073FB60FB6847
:100B3C00154B9B69144A43F004039361124B9B6958
:100B4C0003F00403BB60BB684FF400633B610023FC
:100B5C007B610023BB6107F1100319460B4801F0C0
:100B6C00EBF94FF480533B6102237B610323FB6160
:100B7C0007F110031946054801F0DEF900BF2037D4
:100B8C00BD4680BD006400400010024000080140DA
:100B9C0080B400AF00BFFDE780B400AF00BFFDE73D
:100BAC0080B400AF00BFFDE780B400AF00BFFDE72D
:100BBC0080B400AF00BFFDE780B400AF00BFBD46FE
:100BCC0080BC704780B400AF00BFBD4680BC70478E
:100BDC0080B400AF00BFBD4680BC704780B500AF8D
:100BEC0000F074F800BF80BD80B400AF00BFBD46FC
:100BFC0080BC7047FFF7F8FF0B480C490C4A0023E8
:100C0C0002E0D458C4500433C4188C42F9D3094AB6
:100C1C00094C002301E013600432A242FBD302F022
:100C2C00B1F8FFF709FD7047000000200C00002010
:100C3C00382E00080C00002090000020FEE7000079
:100C4C0080B500AF084B1B68074A43F010031360D4
:100C5C00032001F03DF90F2000F008F8FFF7DEFE4D
:100C6C000023184680BD00BF0020024080B582B032
:100C7C0000AF7860124B1A68124B1B7819464FF470
:100C8C007A73B3FBF1F3B2FBF3F3184601F047F9B7
:100C9C000346002B01D001230EE07B680F2B0AD8F2
:100CAC00002279684FF0FF3001F01DF9064A7B688D
:100CBC001360002300E0012318460837BD4680BDB1
:100CCC0000000020080000200400002080B400AFC9
:100CDC00054B1B781A46054B1B681344034A1360DB
:100CEC0000BFBD4680BC7047080000208C0000206F
:100CFC0080B400AF024B1B681846BD4680BC7047E1
:100D0C008C00002080B584B000AF7860FFF7F0FF56
:100D1C00B8607B68FB60FB68B3F1FF3F05D00A4B02
:100D2C001B781A46FB681344FB6000BFFFF7E0FF1B
:100D3C000246BB68D31AFA689A42F7D800BF00BFC4
:100D4C001037BD4680BD00BF0800002080B586B0BE
:100D5C0000AF78600023FB7500233B610023BB6070
:100D6C000023FB607B68002B01D10123BEE07B6874
:100D7C009B68002B7B689B6A002B09D17B68002247
:100D8C00DA627B68002283F824207868FFF778FE0B
:100D9C00786800F0F1FB0346FB757B689B6A03F0F7
:100DAC001003002B40F09980FB7D002B40F09580C8
:100DBC007B689B6A23F4885323F0020343F00202FE
:100DCC007B689A627B685A687B68DB691A437B682C
:100DDC001B7B5B001343BA681343BB607B689B6847
:100DEC00B3F5807F03D07B689B68012B02D14FF455
:100DFC00807300E000233A6913433B617B681B7DE1
:100E0C00012B19D17B681B7B002B09D17B689B695B
:100E1C00013B5A033B69134343F400633B610BE012
:100E2C007B689B6A43F020027B689A627B68DB6A72
:100E3C0043F001027B68DA627B681B685B6823F411
:100E4C0069417B681B683A690A435A607B681B6876
:100E5C009A68284B13407A681268B9680B43936000
:100E6C007B689B68B3F5807F03D07B689B68012B04
:100E7C0004D17B681B69013B1B05FB607B681B680D
:100E8C00DB6A23F470017B681B68FA680A43DA6238
:100E9C007B681B689A68184B1340BA689A420BD14E
:100EAC007B680022DA627B689B6A23F0030343F0C1
:100EBC0001027B689A6218E07B689B6A23F012033C
:100ECC0043F010027B689A627B68DB6A43F0010294
:100EDC007B68DA620123FB7507E07B689B6A43F051
:100EEC0010027B689A620123FB75FB7D184618374C
:100EFC00BD4680BDFDF7E1FFFE0E1FFF80B584B03F
:100F0C0000AF78600023FB737B6893F82430012BCF
:100F1C0001D1022398E07B68012283F824207868B1
:100F2C0000F0D0FA0346FB73FB7B002B40F087806C
:100F3C007B689B6A23F4407323F0010343F48072B3
:100F4C007B689A627B681B68414A934205D1414B8E
:100F5C005B6803F47023002B15D17B689B6A23F428
:100F6C0080127B689A627B681B685B6803F4806301
:100F7C00002B26D07B689B6A23F4405343F48052A9
:100F8C007B689A621DE07B689B6A43F480127B68E5
:100F9C009A627B681B682F4A934204D07B681B685B
:100FAC002B4A93420DD12B4B5B6803F48063002BCF
:100FBC0007D07B689B6A23F4405343F480527B68D0
:100FCC009A627B689B6A03F48053002B06D07B6883
:100FDC00DB6A23F006027B68DA6202E07B6800229F
:100FEC00DA627B68002283F824207B681B686FF030
:100FFC0002021A607B681B689B6803F46023B3F5DC
:10100C00602F13D17B681B68114A934205D1114B99
:10101C005B6803F47023002B08D17B681B689A680B
:10102C007B681B6842F4A0029A600CE07B681B682A
:10103C009A687B681B6842F480129A6003E07B68B4
:10104C00002283F82420FB7B18461037BD4680BD58
:10105C00002801400024014080B584B000AF7860C6
:10106C000023FB737B6893F82430012B01D10223FE
:10107C001AE07B68012283F82420786800F07CFA5F
:10108C000346FB73FB7B002B09D17B689B6A23F423
:10109C00885323F0010343F001027B689A627B685A
:1010AC00002283F82420FB7B18461037BD4680BDF8
:1010BC0090B587B000AF7860396000237B61002366
:1010CC00FB6000233B61FFF713FE78617B681B68B4
:1010DC009B6803F48073002B0BD07B689B6A43F0F6
:1010EC0020027B689A627B68002283F8242001230B
:1010FC00D3E07B681B685B6803F48073002B31D1F1
:10110C007B681B68DB6A03F47003002B2AD121E097
:10111C003B68B3F1FF3F1DD03B68002B07D0FFF7B6
:10112C00E7FD02467B69D31A3A689A4212D27B6871
:10113C001B681B6803F00203002B0BD17B689B6AB6
:10114C0043F004027B689A627B68002283F82420B7
:10115C000323A2E07B681B681B6803F00203002BCF
:10116C00D6D070E04F4B1C68022001F04DFD0346B9
:10117C00B4FBF3F27B681B6819694B4B0B40002BDB
:10118C0018D17B681B68D968484B0B40002B11D1D8
:10119C007B681B681969464B0B40002B08D17B6898
:1011AC001B68D968434B0B40002B01D1142320E062
:1011BC0029231EE07B681B6819693D4B0B40002BF3
:1011CC0006D17B681B68D9683A4B0B40002B0DD0BD
:1011DC007B681B681969384B0B40002B08D17B6866
:1011EC001B68D968344B0B40002B01D1542300E011
:1011FC00FC2302FB03F33B6121E03B68B3F1FF3FAF
:10120C001AD03B68002B07D0FFF772FD02467B69B2
:10121C00D31A3A689A420FD2FB683A699A420BD9B0
:10122C007B689B6A43F004027B689A627B680022AD
:10123C0083F82420032330E0FB680133FB60FB6858
:10124C003A699A42D9D87B681B686FF012021A600F
:10125C007B689B6A43F400727B689A627B681B68AC
:10126C009B6803F46023B3F5602F15D17B681B7B5F
:10127C00002B11D17B689B6A23F480727B689A6285
:10128C007B689B6A03F48053002B05D17B689B6AB7
:10129C0043F001027B689A62002318461C37BD4656
:1012AC0090BD00BF000000202449922424499200E4
:1012BC0092244912922449004992240080B483B0AC
:1012CC0000AF78607B681B68DB6C18460C37BD463A
:1012DC0080BC704780B485B000AF78603960002363
:1012EC00FB730023BB607B6893F82430012B01D186
:1012FC000223DCE07B68012283F824203B685B68D6
:10130C00062B1CD87B681B68596B3B685A681346C4
:10131C009B001344053B1F2202FA03F3DB431940E5
:10132C003B6818683B685A6813469B001344053B9E
:10133C0000FA03F27B681B680A435A633CE03B6883
:10134C005B680C2B1CD87B681B68196B3B685A6854
:10135C0013469B001344233B1F2202FA03F3DB4387
:10136C0019403B6818683B685A6813469B00134445
:10137C00233B00FA03F27B681B680A431A631BE0E9
:10138C007B681B68D96A3B685A6813469B001344F8
:10139C00413B1F2202FA03F3DB4319403B681868F8
:1013AC003B685A6813469B001344413B00FA03F216
:1013BC007B681B680A43DA623B681B68092B1CD9E3
:1013CC007B681B68D9683B681A6813465B0013443A
:1013DC001E3B072202FA03F3DB4319403B68986873
:1013EC003B681A6813465B0013441E3B00FA03F279
:1013FC007B681B680A43DA6019E07B681B68196913
:10140C003B681A6813465B001344072202FA03F385
:10141C00DB4319403B6898683B681A6813465B00CD
:10142C00134400FA03F27B681B680A431A613B6899
:10143C001B68102B03D03B681B68112B32D17B68C7
:10144C001B681D4A934225D17B681B689B6803F47B
:10145C000003002B26D17B681B689A687B681B688D
:10146C0042F400029A603B681B68102B1AD1134B94
:10147C001B68134AA2FB03239A0C13469B001344CC
:10148C005B00BB6002E0BB68013BBB60BB68002B30
:10149C00F9D107E07B689B6A43F020027B689A6273
:1014AC000123FB737B68002283F82420FB7B184606
:1014BC001437BD4680BC704700240140000000205A
:1014CC0083DE1B4380B584B000AF78600023FB60E3
:1014DC000023BB607B681B689B6803F00103012B36
:1014EC0040D07B681B689A687B681B6842F00102DD
:1014FC009A601F4B1B681F4AA2FB03239B0CBB600B
:10150C0002E0BB68013BBB60BB68002BF9D1FFF765
:10151C00EFFBF8601FE0FFF7EBFB0246FB68D31A0A
:10152C00022B18D97B681B689B6803F00103012B05
:10153C0011D07B689B6A43F010027B689A627B68CF
:10154C00DB6A43F001027B68DA627B68002283F875
:10155C002420012307E07B681B689B6803F00103D0
:10156C00012BD8D1002318461037BD4680BD00BFD3
:10157C000000002083DE1B4380B584B000AF786090
:10158C000023FB607B681B689B6803F00103012B45
:10159C002ED17B681B689A687B681B6822F001025D
:1015AC009A60FFF7A5FBF8601BE0FFF7A1FB024672
:1015BC00FB68D31A022B14D97B681B689B6803F059
:1015CC000103012B0DD17B689B6A43F010027B68F1
:1015DC009A627B68DB6A43F001027B68DA62012362
:1015EC0007E07B681B689B6803F00103012BDCD0D0
:1015FC00002318461037BD4680BD000090B587B05B
:10160C0000AF78600023FB750023FB607B6893F8C8
:10161C002430012B01D1022397E07B68012283F84F
:10162C0024207868FFF7A8FF0346FB757868FFF75E
:10163C0049FF0346FB75FB7D002B40F081807B68E6
:10164C009B6A23F4885323F0020343F002027B6865
:10165C009A62404B1C68022001F0D6FA0346B4FB98
:10166C00F3F35B00FB6002E0FB68013BFB60FB6893
:10167C00002BF9D17B681B689A687B681B6842F069
:10168C0008029A60FFF734FB38611BE0FFF730FB70
:10169C0002463B69D31A0A2B14D97B681B689B68DA
:1016AC0003F00803002B0DD07B689B6A23F0120318
:1016BC0043F010027B689A627B68002283F8242036
:1016CC00012342E07B681B689B6803F00803002B36
:1016DC00DCD17B681B689A687B681B6842F004024B
:1016EC009A60FFF705FB38611BE0FFF701FB024630
:1016FC003B69D31A0A2B14D97B681B689B6803F0CF
:10170C000403002B0DD07B689B6A23F0120343F07B
:10171C0010027B689A627B68002283F824200123E4
:10172C0013E07B681B689B6803F00403002BDCD17F
:10173C007B689B6A23F0030343F001027B689A6287
:10174C007B68002283F82420FB7D18461C37BD469D
:10175C0090BD00BF0000002080B584B000AF786061
:10176C007B68002B01D10123EDE07B6893F82030DE
:10177C00DBB2002B02D17868FFF7BEF97B681B68DF
:10178C001A687B681B6842F001021A60FFF7B0FA16
:10179C00F86012E0FFF7ACFA0246FB68D31A0A2B8A
:1017AC000BD97B685B6A43F400327B685A627B68B6
:1017BC00052283F820200123C5E07B681B685B6849
:1017CC0003F00103002BE5D07B681B681A687B686B
:1017DC001B6822F002021A60FFF78AFAF86012E026
:1017EC00FFF786FA0246FB68D31A0A2B0BD97B68E3
:1017FC005B6A43F400327B685A627B68052283F88B
:10180C00202001239FE07B681B685B6803F00203C8
:10181C00002BE5D17B681B7E012B08D17B681B68F4
:10182C001A687B681B6842F080021A6007E07B68CC
:10183C001B681A687B681B6822F080021A607B6840
:10184C005B7E012B08D17B681B681A687B681B6860
:10185C0042F040021A6007E07B681B681A687B68DC
:10186C001B6822F040021A607B689B7E012B08D11A
:10187C007B681B681A687B681B6842F020021A6040
:10188C0007E07B681B681A687B681B6822F02002E3
:10189C001A607B68DB7E012B08D17B681B681A6899
:1018AC007B681B6822F010021A6007E07B681B68DB
:1018BC001A687B681B6842F010021A607B681B7FF9
:1018CC00012B08D17B681B681A687B681B6842F087
:1018DC0008021A6007E07B681B681A687B681B6843
:1018EC0022F008021A607B685B7F012B08D17B68B1
:1018FC001B681A687B681B6842F004021A6007E0D8
:10190C007B681B681A687B681B6822F004021A60EB
:10191C007B689A687B68DB681A437B681B691A438F
:10192C007B685B6942EA03017B685B685A1E7B68D3
:10193C001B680A43DA617B6800225A627B680122C9
:10194C0083F82020002318461037BD4680BD80B494
:10195C0087B000AF786039607B681B687B617B68FF
:10196C0093F82030FB74FB7C012B03D0FB7C022B07
:10197C0040F0AA807B69D3F8003243F001027B6906
:10198C00C3F800223B685B6903F01F03012202FAD3
:10199C0003F3FB607B69D3F81C22FB68DB431A4022
:1019AC007B69C3F81C223B68DB69002B23D17B6964
:1019BC00D3F80C22FB68DB431A407B69C3F80C227A
:1019CC003B68DB6819043B685B689BB23A685269F8
:1019DC0019437B69483243F832103B689B68190401
:1019EC003B681B689AB23B685B690A437969483368
:1019FC00DB000B445A603B68DB69012B22D17B690D
:101A0C00D3F80C22FB681A437B69C3F80C223B68A1
:101A1C001B6819043B685B689BB23A6852691943AE
:101A2C007B69483243F832103B689B6819043B6869
:101A3C00DB689AB23B685B690A4379694833DB001F
:101A4C000B445A603B689B69002B09D17B69D3F826
:101A5C000422FB68DB431A407B69C3F8042207E0CD
:101A6C007B69D3F80422FB681A437B69C3F8042210
:101A7C003B681B69002B09D17B69D3F81422FB68E6
:101A8C00DB431A407B69C3F8142207E07B69D3F867
:101A9C001422FB681A437B69C3F814223B681B6A47
:101AAC00012B07D17B69D3F81C22FB681A437B6995
:101ABC00C3F81C227B69D3F8003223F001027B6946
:101ACC00C3F80022002306E07B685B6A43F48022A3
:101ADC007B685A62012318461C37BD4680BC704790
:101AEC0080B584B000AF78607B6893F82030DBB2AF
:101AFC00012B2ED17B68022283F820207B681B6887
:101B0C001A687B681B6822F001021A60FFF7F0F874
:101B1C00F86012E0FFF7ECF80246FB68D31A0A2BC8
:101B2C000BD97B685B6A43F400327B685A627B6832
:101B3C00052283F82020012312E07B681B685B6878
:101B4C0003F00103002BE5D17B6800225A620023CD
:101B5C0006E07B685B6A43F400227B685A620123CF
:101B6C0018461037BD4680BD80B489B000AFF86010
:101B7C00B9607A603B60FB6893F82030FB77FB68B8
:101B8C001B689B68BB61FB7F012B03D0FB7F022B87
:101B9C0040F0AD80BB6903F08063002B0AD1BB69B8
:101BAC0003F00063002B05D1BB6903F08053002BBD
:101BBC0000F09580BB691B0E03F003037B610122CF
:101BCC007B699A403B681A60BB689B68002B0DD1FF
:101BDC00BB681B685A05BB68DB68F96809681A435F
:101BEC007B6918331B010B441A600FE0BB685B6800
:101BFC00DA00BB689B681A43BB68DB68F968096844
:101C0C001A437B6918331B010B441A60FB68196873
:101C1C00BB681A697B6918331B010B4404331A60C7
:101C2C00BB681B7D012B11D1FB681A687B691833CB
:101C3C001B01134404331B68FA68116843F4807267
:101C4C007B6918331B010B4404331A607B68073320
:101C5C001B781A067B6806331B781B041A437B68B7
:101C6C0005331B781B0213437A6804321278104632
:101C7C00FA68116843EA00027B691B010B4403F507
:101C8C00C6731A607B6803331B781A067B680233B1
:101C9C001B781B041A437B6801331B781B0213430C
:101CAC007A6812781046FA68116843EA00027B6978
:101CBC001B010B4403F5C4731A60FB681A687B693B
:101CCC0018331B0113441B68FA68116843F00102B6
:101CDC007B6918331B010B441A6000230EE0FB6870
:101CEC005B6A43F40012FB685A62012306E0FB684E
:101CFC005B6A43F48022FB685A620123184624373E
:101D0C00BD4680BC704780B485B000AF78600023BE
:101D1C00FB607B6893F82030FB72FB7A012B02D0BE
:101D2C00FB7A022B1DD17B681B689B6803F08063D8
:101D3C00002B02D0FB680133FB607B681B689B683F
:101D4C0003F00063002B02D0FB680133FB607B685F
:101D5C001B689B6803F08053002B02D0FB68013397
:101D6C00FB60FB6818461437BD4680BC704700000A
:101D7C0080B485B000AF78607B6803F00703FB602C
:101D8C000C4BDB68BB60BA684FF6FF031340BB60BB
:101D9C00FB681A02BB68134343F0BF6343F4003380
:101DAC00BB60044ABB68D36000BF1437BD4680BC1F
:101DBC00704700BF00ED00E080B400AF044BDB685F
:101DCC001B0A03F007031846BD4680BC704700BFD2
:101DDC0000ED00E080B483B000AF03463960FB71C6
:101DEC0097F90730002B0ADB3B68DAB20C4997F9FC
:101DFC0007301201D2B20B4483F800230AE03B688F
:101E0C00DAB20849FB7903F00F03043B1201D2B29A
:101E1C000B441A7600BF0C37BD4680BC704700BF20
:101E2C0000E100E000ED00E080B489B000AFF860A4
:101E3C00B9607A60FB6803F00703FB61FB69C3F1CF
:101E4C000703042B28BF0423BB61FB690433062B57
:101E5C0002D9FB69033B00E000237B614FF0FF32AA
:101E6C00BB6902FA03F3DA43BB681A407B699A40F8
:101E7C004FF0FF317B6901FA03F3D9437B680B40C8
:101E8C00134318462437BD4680BC704780B582B0DA
:101E9C0000AF78607B68013BB3F1807F01D30123F5
:101EAC000FE00A4A7B68013B53600F214FF0FF3073
:101EBC00FFF790FF054B00229A60044B07221A6033
:101ECC00002318460837BD4680BD00BF10E000E077
:101EDC0080B582B000AF78607868FFF749FF00BF2B
:101EEC000837BD4680BD80B586B000AF0346B960EB
:101EFC007A60FB7300237B61FFF75EFF78617A6881
:101F0C00B9687869FFF790FF024697F90F301146D0
:101F1C001846FFF75FFF00BF1837BD4680BD80B580
:101F2C0082B000AF78607868FFF7B0FF03461846C0
:101F3C000837BD4680BD000080B48BB000AF786020
:101F4C00396000237B6200233B6269E101227B6ADA
:101F5C0002FA03F3FB613B681B68FA691340BB612F
:101F6C00BA69FB699A4240F058813B685B689A4AAF
:101F7C0093425ED0984A934275D8984A934258D06F
:101F8C00964A93426FD8964A934252D0944A9342BF
:101F9C0069D8944A93424CD0924A934263D8924A5D
:101FAC00934246D0904A93425DD8122B2AD8122BDA
:101FBC0059D801A252F823F03F200008192000083C
:101FCC002B2000086D2000087320000873200008E7
:101FDC007320000873200008732000087320000889
:101FEC007320000873200008732000087320000879
:101FFC0073200008732000087320000821200008BB
:10200C0035200008794A934213D02CE03B68DB68FA
:10201C003B6229E03B68DB6804333B6224E03B68AD
:10202C00DB6808333B621FE03B68DB680C333B62C8
:10203C001AE03B689B68002B02D104233B6213E03F
:10204C003B689B68012B05D108233B627B68FA69CE
:10205C001A6109E008233B627B68FA695A6103E064
:10206C0000233B6200E000BFBB69FF2B01D87B68FB
:10207C0001E07B6804337B61BB69FF2B02D87B6A70
:10208C009B0002E07B6A083B9B003B617B691A6802
:10209C000F213B6901FA03F3DB431A40396A3B69B0
:1020AC0001FA03F31A437B691A603B685B6803F01F
:1020BC008053002B00F0B1804D4B9B694C4A43F090
:1020CC00010393614A4B9B6903F00103BB60BB683E
:1020DC00484A7B6A9B08023352F82330FB607B6AC8
:1020EC0003F003039B000F2202FA03F3DB43FA68AD
:1020FC001340FB607B68404A934213D07B683F4A95
:10210C0093420DD07B683E4A934207D07B683D4A90
:10211C00934201D1032306E0042304E0022302E0EE
:10212C00012300E000237A6A02F00302920093403C
:10213C00FA681343FB602F497B6A9B080233FA68E9
:10214C0041F823203B685B6803F48013002B06D016
:10215C002D4B9A682C49BB6913438B6006E02A4BC4
:10216C009A68BB69DB43284913408B603B685B680A
:10217C0003F40013002B06D0234BDA682249BB6909
:10218C001343CB6006E0204BDA68BB69DB431E4986
:10219C001340CB603B685B6803F40033002B06D024
:1021AC00194B5A681849BB6913434B6006E0164B30
:1021BC005A68BB69DB43144913404B603B685B684E
:1021CC0003F48033002B21D00F4B1A680E49BB69E6
:1021DC0013430B6021E000BF0000321000003110EF
:1021EC00000022100000211000001210000011103D
:1021FC00001002400000014000080140000C0140AA
:10220C000010014000140140000401400B4B1A68FF
:10221C00BB69DB43094913400B607B6A01337B626A
:10222C003B681A687B6A22FA03F3002B7FF48EAEAC
:10223C0000BF00BF2C37BD4680BC70470004014076
:10224C0080B483B000AF78600B467B8013467B7004
:10225C007B78002B03D07A887B681A6103E07B883B
:10226C001A047B681A6100BF0C37BD4680BC7047EE
:10227C0080B485B000AF78600B467B807B68DB68F0
:10228C00FB607A88FB6813401A04FB68D9437B888F
:10229C000B401A437B681A6100BF1437BD4680BCE3
:1022AC007047000080B586B000AF78607B68002B6B
:1022BC0001D1012372E27B681B6803F00103002B40
:1022CC0000F08780924B5B6803F00C03042B0CD05E
:1022DC008F4B5B6803F00C03082B12D18C4B5B68A3
:1022EC0003F48033B3F5803F0BD1894B1B6803F4A7
:1022FC000033002B6CD07B685B68002B68D101230A
:10230C004CE27B685B68B3F5803F06D1804B1B6861
:10231C007F4A43F4803313602EE07B685B68002BAC
:10232C000CD17B4B1B687A4A23F480331360784BB7
:10233C001B68774A23F4802313601DE07B685B687D
:10234C00B3F5A02F0CD1724B1B68714A43F4802358
:10235C0013606F4B1B686E4A43F4803313600BE0C1
:10236C006B4B1B686A4A23F480331360684B1B6801
:10237C00674A23F4802313607B685B68002B13D0BF
:10238C00FEF7B6FC386108E0FEF7B2FC02463B698A
:10239C00D31A642B01D9032300E25D4B1B6803F4B1
:1023AC000033002BF0D014E0FEF7A2FC386108E0FB
:1023BC00FEF79EFC02463B69D31A642B01D903231A
:1023CC00ECE1534B1B6803F40033002BF0D100E01D
:1023DC0000BF7B681B6803F00203002B63D04C4BDF
:1023EC005B6803F00C03002B0BD0494B5B6803F0CC
:1023FC000C03082B1CD1464B5B6803F48033002B79
:10240C0016D1434B1B6803F00203002B05D07B68ED
:10241C001B69012B01D00123C0E13D4B1B6823F04C
:10242C00F8027B685B69DB00394913430B603AE0C7
:10243C007B681B69002B20D0364B01221A60FEF7FB
:10244C0057FC386108E0FEF753FC02463B69D31A8F
:10245C00022B01D90323A1E12D4B1B6803F00203CE
:10246C00002BF0D02A4B1B6823F0F8027B685B69C9
:10247C00DB00274913430B6015E0264B00221A6042
:10248C00FEF736FC386108E0FEF732FC02463B6989
:10249C00D31A022B01D9032380E11D4B1B6803F0D7
:1024AC000203002BF0D17B681B6803F00803002BA0
:1024BC003AD07B689B69002B19D0174B01221A600C
:1024CC00FEF716FC386108E0FEF712FC02463B6989
:1024DC00D31A022B01D9032360E10D4B5B6A03F085
:1024EC000203002BF0D0012000F0BAFA1CE00A4BDA
:1024FC0000221A60FEF7FCFB38610FE0FEF7F8FBD8
:10250C0002463B69D31A022B08D9032346E100BFCC
:10251C00001002400000424280044242924B5B6A2F
:10252C0003F00203002BE9D17B681B6803F0040362
:10253C00002B00F0A6800023FB758B4BDB6903F0AE
:10254C008053002B0DD1884BDB69874A43F08053B5
:10255C00D361854BDB6903F08053BB60BB680123FF
:10256C00FB75824B1B6803F48073002B18D17F4BD7
:10257C001B687E4A43F480731360FEF7B9FB386125
:10258C0008E0FEF7B5FB02463B69D31A642B01D970
:10259C00032303E1754B1B6803F48073002BF0D00D
:1025AC007B68DB68012B06D16F4B1B6A6E4A43F0CC
:1025BC00010313622DE07B68DB68002B0CD16A4BA6
:1025CC001B6A694A23F001031362674B1B6A664A54
:1025DC0023F0040313621CE07B68DB68052B0CD131
:1025EC00614B1B6A604A43F0040313625E4B1B6A27
:1025FC005D4A43F0010313620BE05B4B1B6A5A4AC2
:10260C0023F001031362584B1B6A574A23F004034F
:10261C0013627B68DB68002B15D0FEF769FB386111
:10262C000AE0FEF765FB02463B69D31A41F2883299
:10263C00934201D90323B1E04B4B1B6A03F0020315
:10264C00002BEED014E0FEF753FB38610AE0FEF7E6
:10265C004FFB02463B69D31A41F28832934201D9AF
:10266C0003239BE0404B1B6A03F00203002BEED1CB
:10267C00FB7D012B05D13C4BDB693B4A23F080539E
:10268C00D3617B68DB69002B00F08780364B5B687D
:10269C0003F00C03082B61D07B68DB69022B46D15D
:1026AC00334B00221A60FEF723FB386108E0FEF77B
:1026BC001FFB02463B69D31A022B01D903236DE0A1
:1026CC00294B1B6803F00073002BF0D17B681B6A4D
:1026DC00B3F5803F08D1244B5B6823F400327B6850
:1026EC009B68214913434B601F4B5B6823F47412A6
:1026FC007B68196A7B685B6A0B431B4913434B600D
:10270C001B4B01221A60FEF7F3FA386108E0FEF762
:10271C00EFFA02463B69D31A022B01D903233DE0A1
:10272C00114B1B6803F00073002BF0D035E0104BFD
:10273C0000221A60FEF7DCFA386108E0FEF7D8FADE
:10274C0002463B69D31A022B01D9032326E0064B20
:10275C001B6803F00073002BF0D11EE07B68DB6973
:10276C00012B07D1012319E000100240007000403A
:10277C00600042420B4B5B68FB60FB6803F48032E9
:10278C007B681B6A9A4206D1FB6803F470127B6863
:10279C005B6A9A4201D0012300E0002318461837E7
:1027AC00BD4680BD0010024080B584B000AF78609B
:1027BC0039607B68002B01D10123D0E06A4B1B6888
:1027CC0003F007033A689A4210D9674B1B6823F051
:1027DC00070265493B6813430B60634B1B6803F0AE
:1027EC0007033A689A4201D00123B8E07B681B6862
:1027FC0003F00203002B20D07B681B6803F004035A
:10280C00002B05D0594B5B68584A43F4E063536086
:10281C007B681B6803F00803002B05D0534B5B68E7
:10282C00524A43F460535360504B5B6823F0F00200
:10283C007B689B684D4913434B607B681B6803F0B6
:10284C000103002B40D07B685B68012B07D1474B01
:10285C001B6803F40033002B15D101237FE07B6848
:10286C005B68022B07D1414B1B6803F00073002BF4
:10287C0009D1012373E03D4B1B6803F00203002BCD
:10288C0001D101236BE0394B5B6823F003027B68B9
:10289C005B68364913434B60FEF72AFAF8600AE08E
:1028AC00FEF726FA0246FB68D31A41F288329342AD
:1028BC0001D9032353E02D4B5B6803F00C027B68BA
:1028CC005B689B009A42EBD1274B1B6803F0070314
:1028DC003A689A4210D2244B1B6823F00702224913
:1028EC003B6813430B60204B1B6803F007033A68EB
:1028FC009A4201D0012332E07B681B6803F0040389
:10290C00002B08D0194B5B6823F4E0627B68DB6812
:10291C00164913434B607B681B6803F00803002BBC
:10292C0009D0124B5B6823F460527B681B69DB0097
:10293C000E4913434B6000F021F802460B4B5B68C9
:10294C001B0903F00F030A49CB5C22FA03F3094A73
:10295C001360094B1B681846FEF788F900231846CC
:10296C001037BD4680BD00BF002002400010024061
:10297C00F02D0008000000200400002080B487B077
:10298C0000AF0023FB600023BB6000237B610023AE
:10299C007B6000233B611E4B5B68FB60FB6803F0B4
:1029AC000C03042B02D0082B03D027E0194B3B61FE
:1029BC0027E0FB689B0C03F00F03174AD35C7B608A
:1029CC00FB6803F48033002B10D0114B5B685B0C5D
:1029DC0003F00103114AD35CBB607B680D4A03FB17
:1029EC0002F2BB68B2FBF3F37B6104E07B680C4A38
:1029FC0002FB03F37B617B693B6102E0054B3B61AE
:102A0C0000BF3B6918461C37BD4680BC704700BFF1
:102A1C000010024000127A00082E0008182E000840
:102A2C0000093D0080B400AF024B1B681846BD4640
:102A3C0080BC70470000002080B500AFFFF7F2FFAC
:102A4C000246054B5B68DB0A03F007030349CB5CCA
:102A5C0022FA03F3184680BD00100240002E000835
:102A6C0080B485B000AF78600A4B1B680A4AA2FBA1
:102A7C0003235B0A7A6802FB03F3FB6000BFFB686D
:102A8C005A1EFA60002BF9D100BF00BF1437BD46A7
:102A9C0080BC704700000020D34D621080B586B01A
:102AAC0000AF786000233B610023FB607B681B68F0
:102ABC0003F00103002B7DD00023FB754F4BDB692A
:102ACC0003F08053002B0DD14C4BDB694B4A43F088
:102ADC008053D361494BDB6903F08053BB60BB6807
:102AEC000123FB75464B1B6803F48073002B18D134
:102AFC00434B1B68424A43F480731360FEF7F8F8AB
:102B0C00386108E0FEF7F4F802463B69D31A642BEF
:102B1C0001D903236DE03A4B1B6803F48073002B3F
:102B2C00F0D0364B1B6A03F44073FB60FB68002B40
:102B3C002ED07B685B6803F44073FA689A4227D006
:102B4C002E4B1B6A23F44073FB602E4B01221A6040
:102B5C002C4B00221A60294AFB681362FB6803F0B5
:102B6C000103002B14D0FEF7C3F838610AE0FEF71E
:102B7C00BFF802463B69D31A41F28832934201D91D
:102B8C00032336E01D4B1B6A03F00203002BEED02F
:102B9C001A4B1B6A23F440727B685B68174913431A
:102BAC000B62FB7D012B05D1144BDB69134A23F01F
:102BBC008053D3617B681B6803F00203002B08D0A1
:102BCC000E4B5B6823F440427B689B680B491343B4
:102BDC004B607B681B6803F01003002B08D0074B7D
:102BEC005B6823F480027B68DB68044913434B6009
:102BFC00002318461837BD4680BD00BF00100240A8
:102C0C00007000404004424280B588B000AF78604C
:102C1C0000237B610023FB6100233B610023FB60ED
:102C2C000023BB617B68102B0AD07B68102B00F251
:102C3C008A807B68012B45D07B68022B75D082E0A3
:102C4C00464B5B68FB60454B1B6803F08073002BA5
:102C5C007BD0FB689B0C03F00F03414AD35C3B61B8
:102C6C00FB6803F48033002B15D03C4B5B685B0C8A
:102C7C0003F001033B4AD35C7B61FB6803F48033B4
:102C8C00002B0DD0384A7B69B2FBF3F23B6902FB97
:102C9C0003F3FB6104E03B69344A02FB03F3FB6181
:102CAC002E4B5B6803F48003B3F5800F02D1FB69F4
:102CBC00BB614AE0FB695B002D4AA2FB03235B0866
:102CCC00BB6142E0254B1B6AFB60FB6803F440735D
:102CDC00B3F5807F08D1FB6803F00203002B03D00F
:102CEC004FF40043BB611FE0FB6803F44073B3F582
:102CFC00007F09D1194B5B6A03F00203002B03D050
:102D0C0049F64043BB610FE0FB6803F44073B3F535
:102D1C00407F1CD1114B1B6803F40033002B16D0E1
:102D2C004FF22443BB6112E011E0FFF785FE02462F
:102D3C000A4B5B689B0B03F0030301335B00B2FB94
:102D4C00F3F3BB6104E000BF02E000BF00E000BF92
:102D5C00BB6918462037BD4680BD00BF001002403D
:102D6C001C2E00082C2E000800127A0000093D00D1
:102D7C00ABAAAAAA03460244934200D1704703F8B7
:102D8C00011BF9E770B500260C4D0D4B5B1B9C101D
:102D9C00A64209D1002600F019F80A4D0A4B5B1B1C
:102DAC009C10A64205D170BD55F8043B98470136DE
:102DBC00EEE755F8043B98470136F2E7302E000851
:102DCC00302E0008302E0008342E0008F8B500BF55
:102DDC00F8BC08BC9E467047F8B500BFF8BC08BCF0
:042DEC009E46704748
:102DF00000000000000000000102030406070809AB
:102E0000000000000102030402030405060708098C
:102E10000A0B0C0D0E0F1010010200000203040536
:102E2000060708090A0B0C0D0E0F10100102000016
:042E30003101000864
:042E34000D01000884
:0C2E380000127A001000000001000000F1
:0400000508000C01E2
:00000001FF
